:020000040000FA
:060000008CEF0AF0120073
:020006001200E6
:0800080007EF00F01200DACF4F
:10001000E4FFE2CFDAFFE9CFE4FFEACFE4FFF6CF77
:10002000E4FFF7CFE4FFF5CFE4FFF3CFE4FFF4CF35
:10003000E4FFFACFE4FF00EE00F0140EE80403E35F
:10004000EECFE4FFFBD700EE14F0070EE80403E365
:10005000EECFE4FFFBD7E65268D8E55200EE1AF087
:10006000070EE80403E3E5CFEDFFFBD700EE13F046
:10007000140EE80403E3E5CFEDFFFBD7E5CFFAFF6D
:10008000E5CFF4FFE5CFF3FFE5CFF5FFE5CFF7FFD1
:10009000E5CFF6FFE5CFEAFFE5CFE9FFE5CFDAFFF1
:1000A0001100D9CFE6FFE1CFD9FF040EE1260AD82F
:1000B0002EEC08F0B2D886D80A0EE66E53EC0AF0A1
:1000C000E552F8D7760ED36E9B8C9B8ED2980F019B
:1000D0003B6B956A00EC08F0880ECF6ECE6A490E35
:1000E000CD6ECC6AD08E9E909D800F01388192801B
:1000F000C70EC0140809C06EF80EC0140009C06E07
:10010000C08EC280830EC2140009C26E96928D8288
:100110009E969D96F00EC6140209C66EC68AF28897
:100120000F012D6B2E6BF28E12009EA00AD09E90B6
:1001300032D80F012D2B000E2E23880ECF6ECE6AE3
:1001400012009EA604D0C7B064D89E901200F2A2FE
:1001500007D0FF0E0F013203F328326FF2928D7237
:10016000120084D8DF6A80B802D0DF2AFCD7DF50C3
:10017000050802E2010E01D0000E7ED077D8DF6ABA
:1001800081B002D0DF2AFCD7DF50050802E2010E61
:1001900001D0000E71D0C282C2B2FED7C4500F018E
:1001A000156E146AC3501410346F15C035FFFF0E5E
:1001B000341907E1030E351904E1FE0E346F030E06
:1001C000356F1200010EE66E5CD834CFE6FF35CFF6
:1001D000E6FF7D0E146E150E33D81E0EE66E0F0E62
:1001E00037D81E0E146E0F0E2BD83AD0E66A49D8B7
:1001F0000F013251E66EE66A6C0E146E150E20D8B1
:10020000000EE66E0F0E24D8000E146E0F0E18D8D6
:1002100027D02CD8C950DF6E2FD0E66A32D82DCF28
:10022000E6FF2ECFE6FF7D0E146E150E09D80F0ED9
:10023000E66E0F0E0DD80F0E146E0F0E01D810D0F3
:10024000156E166A14C0E6FFE66E16C0E6FF1200D1
:10025000E66EB0EC08F0176E070EE15E1750120064
:100260005CEC08F0E552E552E5521200D9CFE6FF0A
:10027000E1CFD9FFE6521200E552E552E7CFD9FFB0
:0E0280001200E66A33EC08F0E552E552120077
:02028E0001006D
:0C02900094150000320F00000400000074
:04029C008AEC06F0F2
:1002A000FB0EDBCFF3FFDB06F35000090AE0D8ECCE
:1002B00006F0FA0E43EC07F0F3E1151CF1E1010E34
:1002C00001D0000EB9EF06F08AEC06F03B0EE124F7
:1002D00002E3E168E652E16E010EDB6A020EDB6AC0
:1002E000F90EDBCFF6FFFA0EDBCFF7FFFB0EDBCF0D
:1002F000F8FF0800F550DF6EDF5002E1DDEF05F09A
:10030000250EDF5C02E0D0EF05F0030EDB6A040E81
:10031000DB6A050EDB6A060EDB6A070EDB6AF2ECAF
:1003200005F02D0EDF5C0CE02B0EDF5C09E0200EEB
:10033000DF5C06E0230EDF5C03E0300EDF5C1AE1D9
:10034000DF50300A14E0130A0FE0030A0AE00B0A38
:1003500005E0060AE4E1030EDB80E1D7030EDB8251
:10036000DED7030EDB84DBD7030EDB86D8D7030E84
:10037000DB88D5D72A0EDF5C1BE1EEEC05F03CEC08
:1003800006F010E0030EDB8006680768130EDBCF73
:100390000BF0140EDBCF0CF002EC0AF0040E04C0DC
:1003A000DBFF03D0130E25EC06F0F2EC05F00BD0CA
:1003B000090EDB6A93EC06F003E007EC07F0FAD7CE
:1003C000090E25EC06F0030EDBB0DB982E0EDF5C89
:1003D0001BE1F2EC05F02A0EDF5C0BE1EEEC05F020
:1003E0003CEC06F003E1130E77EC06F0F2EC05F0BE
:1003F0000BD0090EDB6A93EC06F003E007EC07F084
:10040000FAD7090E77EC06F0680EDF5C07E1F2EC34
:1004100005F0680EDF5C1DE1030E18D0740EDF5C82
:1004200017E07A0EDF5C14E0480EDF5C06E0540E45
:10043000DF5C03E05A0EDF5C02E1020E07D06C0EB7
:10044000DF5C03E06A0EDF5C04E1010ECAEC06F03B
:10045000C9DBDF506E0A01E17FD31E0A01E192D1B0
:10046000200A01E18FD13F0A01E149D11A0A01E1D5
:1004700046D10D0A01E143D1200A01E140D13A0AF7
:1004800001E13DD1200A01E13AD1260A01E135D14D
:100490000D0A01E132D11A0A01E1D9D0200A4AE05D
:1004A000300A1FE0460A0EE0250A01E083D3D95046
:1004B000F90FE96EFF0EDA20EA6E010EEE5E000E15
:1004C000EE5AEE5AD8EC06F0250EE66E95DB03E107
:1004D000151C01E169D3D4EC06F001E26BD3DB2AF1
:1004E00069D3080EDB6A040EDB50010806E2040E35
:1004F000DB049CEC06F0DB508BDB080EDB5009E0E4
:10050000030EDB50010B05E172DB01E04DD3080E59
:10051000DB6A64DBEFCFDFFF4CEC07F003E1151C77
:1005200001E142D3D4EC06F001E3DB2A60DB01E118
:1005300041D33AD3070EDB5002080FE118EC07F065
:10054000030EDFEC06F00E0EEECFDBFF0F0EEECF4C
:10055000DBFF100EEECFDBFF20D0F70EDBCF17F066
:10056000F80EDBCF18F0020E175E000E185AF70EC9
:1005700017C0DBFFF80E18C0DBFF17C0E9FF18C07B
:10058000EAFFCFEC06F0166A0E0E14C0DBFF0F0E6A
:1005900015C0DBFF100E16C0DBFF0E0EDBCFE6FF33
:1005A0000F0EDBCFE6FF100EDBCFE6FFDDEC09F030
:1005B000E552E552E552130E05C0DBFF140E06C0EE
:1005C000DBFF060EDB5005E0130E13EC07F001E233
:1005D0006ADB37EC07F002E2130E37DBFAEC06F0C9
:1005E00006E0040E13EC07F002E2050E2EDB030E0C
:1005F000DBB005D0FCDA01E0D7D2080EDB6A090EC9
:10060000DB6A0E0EDBCFF6FF0F0EDBCFF7FF100E0F
:10061000DBCFF8FF0800F550DF6EDF5014E03DEC53
:1006200007F011E24CEC07F003E1151C01E1BCD22C
:10063000BBDB01E3DB2A090EDB2AD9500E0FE96E82
:10064000000ECBDBE7D7D3DA01E1B4D2ADD2C6DA04
:10065000110EEECFDBFF120EEDCFDBFF110EDBCF65
:10066000E6FF120EDBCFE6FFCFEC09F0E552E552D4
:10067000130EF3CFDBFF140EF4CFDBFF060EDB50BF
:1006800004E0130ED0DB01E20EDB37EC07F002E2F0
:10069000130EDBDAAFDB05E0040EC5DB02E2050E6C
:1006A000D4DA030EDBB005D0A2DA01E07DD2080E69
:1006B000DB6A090EDB6A110EDBCFE9FF120EDBCF1E
:1006C000EAFFEFCFDFFFDF5014E0D7DB12E2E4DB1D
:1006D00003E1151C01E168D267DB01E3DB2A090EA7
:1006E000DB2A110EDB2ADBCFE9FF120EE8E3DB2A5F
:1006F000E6D77DDA01E15ED257D2030EDB8E070E1C
:10070000DB0410E195DB040E5ADB0A0EEECFDBFFB3
:100710000B0EEECFDBFF0C0EEECFDBFF0D0EEECFA0
:10072000DBFF6CD0070EDB5003082CE1030EDBAEC1
:100730000DD0B2DA020E76DAEFCF14F0156A166A2F
:10074000176A14AE39D01568166835D0F70EDBCFAE
:1007500015F0F80EDBCF16F0020E155E000E165ADD
:10076000F70E15C0DBFFF80E16C0DBFF15C0E9FF62
:1007700016C0EAFFEFCF14F00A0E14C0DBFF0B0E19
:10078000DB6A38D0070EDB50020809E1030EDBAE4E
:1007900004D059DB16AE10D00ED055DB0DD0030EB1
:1007A000DBAE12D079DA020E3DDAF9DA166A176A90
:1007B00015AE02D016681768E2DA0C0E16C0DBFF21
:1007C0000D0E17C0DBFF1AD0F70EDBCF16F0F80EB8
:1007D000DBCF17F0020E165E000E175AF70E16C08A
:1007E000DBFFF80E17C0DBFF16C0E9FF17C0EAFFFA
:1007F000D6DAC5DA0C0EDB6A0D0EDB6A060EDB50AC
:1008000005E1010EF36E050EF3CFDBFF150EDB6A7B
:10081000160EDB6AD950370F146E000EDA20156EF3
:10082000390E14C0DBFF3A0E15C0DBFF380EDB6A51
:10083000080EDB6A0A0EAEDADF50780A12E0200AF0
:1008400010E0280A0CE0200A0AE03F0A06E00D0A40
:1008500002E0200A08E1020E05D0080E03D0080EBF
:10086000DF26100E97DA030EDBBE02D0DB92DB949C
:10087000DB50800B24E08ADAD890030EEB50000A9C
:1008800008E6000EEE5C000EEE58000EEE58000E6C
:10089000EE5815E213DA09680A680B680C6897ECE1
:1008A00009F00A0E00C0DBFF0B0E01C0DBFF0C0ECF
:1008B00002C0DBFF0D0E03C0DBFF2D0E08D0030EC0
:1008C000DBA202D02B0E03D0DBA408D0200EF36EE7
:1008D000170EF3CFDBFF150EDB2A02D0170EDB6AF3
:1008E000050EDB5003E1B7D901E189D0800E146E0B
:1008F000150E156E000E166E070EDBCF17F0186A78
:10090000196A1A6A17C009F018C00AF019C00BF06A
:100910001AC00CF0D3D92FEC0AF014500024F36E57
:1009200015500120F46E16500220F86EF4CFF7FF38
:10093000F3CFF6FF0800090EF5CFDBFF580EDF5CA2
:100940000FE1610EF36E090E7BD90AE3200E146EDF
:10095000090EDBCFE7FF1450E75E090EE7CFDBFFA0
:10096000070EDBCF14F0156A166A176A0FDA14C087
:1009700009F015C00AF016C00BF017C00CF0EECF4E
:1009800004F0EECF05F0EECF06F0EFCF07F02FEC3E
:100990000AF007C0EDFF06C0EDFF05C0EDFF04C083
:1009A000EFFF390EDBCFE9FFDB063A0EDBCFEAFFC4
:1009B00001E2DB06090EDBCFEFFF150EDB2A4BD978
:1009C00095E1030EDBA61DD06F0EDF5C06E1C1D9F9
:1009D00018E3150EDB285BDA14D0780EDF5C09E033
:1009E000580EDF5C06E0620EDF5C03E0420EDF5C67
:1009F00008E1020EF36E160EF3CFDBFF02D0150EE8
:100A0000DB6A030EDB50100B0EE0040EDBCF14F09C
:100A1000050EDB50D880145406E2060EDB5003E1CD
:100A2000040EDB5034DA95D90AE2050EDBCFE7FF7E
:100A3000150EDB50E75E050EE7CFDBFF02D0050E9B
:100A4000DB6A040EDBCF14F0160E45D9D88014549F
:100A500014E2160EDBCFE6FF150EDBCFE6FF040E29
:100A6000DBCFE6FF050EDB50E552E75CE552D880B0
:100A7000E754E552D880E7545FD9030EDB50010BF1
:100A80000BE1080EDB5008E0B2D801E08DD0080E73
:100A9000DB50BED8080EDB6A170EDB5007E088D9A2
:100AA000170EF1D903E1151C01E17ED0160EDB50C3
:100AB00016E07ED9300EE66E9FD802E1151C74E078
:100AC00077D9DFCFE6FF55EC09F0E552E552E55264
:100AD000F4CF15F00001F31C02E1151C65E0050ED2
:100AE000DBCF14F0160EDB50D880145409E2050E4B
:100AF000DBCFE7FF160EDB50E75E050EE7CFDBFF2F
:100B0000300EE66E050ECBD94FE1390EDB2ADBCF76
:100B1000E9FF3A0E01E3DB2ADBCFEAFF090EEFCF54
:100B2000DBFFDB500EE044D9090EADD902E1151C04
:100B30003BE0390EDB2ADBCFE9FF3A0EEDE3DB2A9F
:100B4000EBD755D831E1160EDBCFE6FF080EC3D840
:100B5000E552E7245DD82ED0070EDB50030A1CE0D7
:100B6000010A14E0030A07E07BD9DBCFEEFF020E97
:100B7000DBCFEDFF1FD0F5D8196A17AE02D0186889
:100B800019682CD8BCD819C0EEFF14D0EAD817BE0B
:100B9000186824D8B4D80ED063D9DBCFEFFF0AD0C1
:100BA0007BD905E1151C03E1F368F46810D0FCD88B
:100BB00001E3DB2A79D979EF01F0010EDBCF14F0E4
:100BC000020EDBCF15F014C0F3FF15C0F4FF3B0E8F
:100BD000E15C02E2E16AE552E16ECBD029D9020E76
:100BE000DFEF06F061D90800F550DF6E1200200E2D
:100BF000E66E080E4FEF07F055EC09F0E552E552AE
:100C0000E552F3CF14F0F4CF15F00001F31C1200FD
:100C1000146E156AD950010F4DD91450EE26155097
:100C2000ED221200185E000E195AF70E18C0DBFFF5
:100C3000F80E19C0DBFF18C0E9FF19C0EAFF120067
:100C4000DBCFF4FFF350F45C1200DB50E76E040ED0
:100C5000E7CFDBFF12000A0EDBCF14F00B0EDBCF69
:100C600015F00C0EDBCF16F00D0EDBCF17F0145085
:100C70001510161017101200130EEECFDBFF140E16
:100C8000EDCFDBFF130EDBCF14F0140EDBCF15F02E
:100C90000001800E15141200F70EDBCF18F0F80ECD
:100CA000DBCF19F01200050EDB50E66ED950130FA2
:100CB00001D9E552E750EE6EED6A12000A0EDBCF65
:100CC00004F00B0EDBCF05F00C0EDBCF06F00D0EA3
:100CD000DBCF07F01200DBCFE6FF150EDBCFE6FF20
:100CE000050EDB50E552E724E552E7241200DB5005
:100CF000CED8010EF36E060EF3CFDBFF1200EE50DE
:100D0000EFCFEAFFE96E16C0EEFF17C0EEFF18C086
:100D1000EEFF1200D9CFE6FFDACFE6FFE1CFD9FF31
:100D2000E2CFDAFF1200DFCFE6FFE66A6AEC0AF0F4
:100D3000E552E552F3501200E76E080EE7CFDBFFF5
:100D40001200EECF14F0EECF15F0EFCF16F0176AC9
:100D50001200050EDBCF14F0150EDB50D8801454B2
:100D60001200010EDBCF16F0020EDBCF17F0186A6F
:100D70001200E552E5CFDAFFE7CFD9FF12000A0EE5
:100D800014C0DBFF0B0E15C0DBFF1200D9500A0F99
:100D90005AEF07F0F36E070EF3CFDBFF1200EECF32
:100DA00014F0EFCF15F01200010EDB2A020E120034
:100DB000FC0EDBCFE6FFFD0EDBCFE6FF1200145E7C
:100DC000000E155AF70E14C0DBFFF80E15C0DBFF3E
:100DD00014C0E9FF15C0EAFF1200DA20EA6EEF2A1C
:100DE000EECFF6FF000EEF22EECFF7FFEF22EECFB1
:100DF000F8FF1200040EDBCFE6FF130EDB50E552C6
:100E0000E75C9ADFDB5004DF060EDB501200090EB0
:100E1000DB500A0DF350DF24D00FE76E090EE7CF49
:100E2000DBFFF2EF05F0DB50F36E050E20EF06F06E
:100E3000F70EDBCF14F0F80EDBCF15F01200DFCF8A
:100E4000E6FFFCEF05F028DF030EECDEA1EF06F075
:100E50004EEC01F0E552E552E552E5520009120070
:100E6000BDDEEE50EFCFEAFFE96E010E1200130E69
:100E7000DB50F36E040E20EF06F0040EDB50F36E31
:100E8000090E20EF06F0DBCFE6FFFCEF05F0E76E82
:100E9000050EE7CFDBFF12008BDF1FEF07F0DBCF84
:100EA000E6FF86DF28EF07F0D950F90FE96EFF0E55
:0E0EB000EDEF06F0E96E000EDA20EA6E120099
:020EBE00D9CF8A
:100EC000E6FFE1CFD9FF020EE12695809582958459
:100ED00095868C8C000000008350DF6E8C9CDF5068
:100EE000100D010EF3CFDBFF8C8C0000000083504F
:100EF000DF6E8C9C000EDB98DB9ADB9CDB9E010E88
:100F0000DBCFE7FFDF50E712010EE7CFDBFF959065
:100F1000959295949596010EDB5000D0146E020EBA
:100F2000E15C02E2E16AE552E16E1450E552E7CF7E
:100F3000D9FF1200D9CFE6FFE1CFD9FF030EE1269A
:100F4000010EDB6A020EDB6A8C988C8AB8DFDF6EDA
:100F5000D950010FE96EDACFEAFFE80EEE1802E190
:100F6000030EED1804E18A828A848A86FCD7010E7A
:100F7000DB2A020E01E3DB2ADFBEE8D78C9A0400ED
:100F8000010EDB6A020EDB6A030EE15C02E2E16A3B
:100F9000E552E16EE552E7CFD9FF1200D9CFE6FF67
:100FA000E1CFD9FFE652FE0EDB5002E08C9801D073
:100FB0008C888C9A8C8C8C968C948C928C90000063
:100FC00000008C50DF6E000EDB90DB92DB94DB9632
:100FD000FD0EDB500F0BDF108C6E000000008C9CB0
:100FE000E552E552E7CFD9FF120099D8FD0EDB3864
:100FF0000F0BE66EA1D8FD0EDBCFE6FF9DD88BD0A0
:10100000959E959C959A959C95909592959495967C
:101010008C9E8C8E8C988C9A8C9C8C8C8BDF020E88
:1010200096D8020E94D8080E92D8E66A54D80C0EC0
:101030008ED8E66A50D8010EE66E8CD8E66A4BD898
:10104000020E85D8040E83D80E0E81D807D8E66A22
:10105000E66A09D8E552E5528C8E1200010EE66E62
:10106000E66E86EF08F05BD8FD0EDB50010812E358
:10107000FE0EDB500F080EE3FD0EDB0404E1FE0E56
:10108000DB50C00903D0FE0EDB508009E66E010E76
:10109000E66E3CD840D043D8FE0EDBCFE6FFE66AD2
:1010A00035D839D03CD840D80750300F4CD83CD830
:1010B0000350300F48D82FD032D8E652DF6ADFCF46
:1010C00014F00CD806E0DF50DF2A146E07D83BD8A6
:1010D000F6D7E55220D0010EAAEF08F0156A166A7D
:1010E000D950FC0FE96EFF0EDA20EA6EEE501424A0
:1010F000F36EEE501520F46EEE501620F86EF4CF1D
:10110000F7FFF3CFF6FF0800F55012006EDFE5524F
:10111000E5529AEF07F0E552E7CFD9FF1200D9CF99
:10112000E6FFE1CFD9FF12000A0E146E0C6EFE0E20
:10113000DBCF07F0A8EF0AF0FE0EDBCFE6FF2EDFD5
:10114000E552E5521200E66EA6DFE5521200E66EA9
:101150006BEF08F0E66E22DFE552E5529AEF07F0FA
:10116000D9CFE6FFDACFE6FFE1CFD9FFE2CFDAFF52
:10117000E652E652E652E652D950F90F146EFF0ECF
:10118000DA20156E020E14C0DBFF030E15C0DBFF64
:10119000020EDBCFE6FF030EDBCFE6FFF90EDBCF5F
:1011A000E6FFFA0EDBCFE6FFFB0EDBCFE6FFD95002
:1011B000FC0FE66EFF0EDA20E66E64EC01F0146EB2
:1011C000070EE15C02E2E16AE552E16E1450F3CFF2
:1011D000DEFFF4CFDDFFFC0EDBCFE9FFFD0EDBCF42
:1011E000EAFFEF6ADECF14F0DDCF15F014C0F3FF95
:1011F00015C0F4FF040EE15C02E2E16AE552E16E23
:0C120000E552E5CFDAFFE7CFD9FF12007E
:04120C008E0EF66EDE
:10121000020EF76E000EF86E00010900F550656FC2
:101220000900F550666F03E1656701D03DD0090004
:10123000F550606F0900F550616F0900F550626F5D
:1012400009000900F550E96E0900F550EA6E090041
:1012500009000900F550636F0900F550646F09003B
:101260000900F6CF67F0F7CF68F0F8CF69F060C0FB
:10127000F6FF61C0F7FF62C0F8FF0001635302E1AF
:10128000645307E00900F550EE6E6307F8E2640767
:10129000F9D767C0F6FF68C0F7FF69C0F8FF000123
:0A12A0006507000E665BBFD7120061
:0612AA00D9CFE6FFDACF08
:1012B000E6FFE1CFD9FFE2CFDAFFFB0EDBCF14F080
:1012C000FC0EDBCF15F00001800E15141AE1FB0EA9
:1012D000DBCFE9FFFC0EDBCFEAFFEECFF3FFEDCF74
:1012E000F4FFEE2A000EEF22F3CFE9FFF4CFEAFF7E
:1012F000FD0EDBCFEFFFEF50156AF36E15C0F4FF64
:1013000010D0FB0EDB50FE0806E1FD0EDBCFE6FF42
:101310009AEC0AF005D0FD0EDBCFE6FF03EC00F0FF
:0E132000E552E552E5CFDAFFE7CFD9FF120024
:02132E00045069
:101330000902F3CF00F0F4CF01F00A02F3500126C6
:10134000000EF420026E04500B02F3500226000E31
:10135000F420036E04500C02F350032605500902DA
:10136000F3500126F4500222000E032205500A0217
:10137000F3500226F450032205500B02F3500326CB
:1013800006500902F3500226F450032206500A02C6
:0E139000F350032607500902F3500326120003
:02139E00FE0E41
:1013A000E3CFE9FFFF0EE3CFEAFFF36AF46AEE5200
:1013B00003E0F34AF42AFBD71200FF0EE3CFF8FF55
:1013C000E552FF0EE3CFF7FFE552FF0EE3CFF6FF46
:1013D000E552E66AE66AE66A0900F55209E0FD0EA2
:1013E000E32A05E1FE0EE32A02E1FF0EE32AF4D729
:1013F000FD0EE3CF05F0FE0EE3CF06F0FF0EE3CFC8
:0414000007F01200DF
:0C14040007C013F006C012F006500B02E7
:10141000F4CF05F0F3CF04F007500C02F4CF07F03F
:10142000F3CF06F00B02F3500526F4500622E86ACB
:10143000072212500C02F3500526F4500622E86AE7
:1014400007220CAE28EF0AF01250065E1350075A1E
:0E14500013AE000C0B50065E0C50075A000C39
:02145E00036A1F
:10146000026A016A006A200EE76ED89004360536DB
:101470000636073600360136023603360950005C60
:101480000A5001580B5002580C50035809E30950F8
:10149000005E0A50015A0B50025A0C50035A042A9B
:0614A000E72EE4D7120064
:0A14A600FF0EE3501C6EEF0E01D0A4
:1014B000F30EE76EE72E5AEF0AF00C0E1B6EE76A8A
:1014C000E72E60EF0AF01B2E5FEF0AF01C2E58EF9C
:0414D0000AF012000C
:0C14D400F36AF46AFF0EE124E96EFF0EDB
:1014E000E220EA6EED6607D02F0EEF6404D03A0ECC
:0814F000EF6001D0F32A1200A5
:0814F800380EF36E00EE00F067
:101500000F0E01D81200EA6002D0EE6AFCD7F35049
:08151000E9601200EE6AFCD74D
:081518001EEE00F02EEE00F0C3
:10152000F86A0F9C06EC09F0C9EC0AF051EC00F0E7
:04153000FBD71200D3
:0C153400FF0EE350ACBA04D0AF6AAB8EDF
:10154000AC8A949CACA2FED7AD6EF36EF46A120026
:10155000036A080EE76ED890073603360C50035C1A
:0C15600002E3036E072AE72EF7D7120003
:04156C00454347208C
:1015700073746174652069733A20256400256400E2
:1015800030313233343536373839616263646566F9
:01159000005A
:02159200120045
:041594000000000053
:020000040030CA
:0100010039C5
:010003003CC0
:010006008574
:00000001FF
