:020000040000FA
:060000004FEF12F01200A8
:020006001200E6
:0800080007EF00F01200DACF4F
:10001000E4FFE2CFDAFFE9CFE4FFEACFE4FFF6CF77
:10002000E4FFF7CFE4FFF5CFE4FFF3CFE4FFF4CF35
:10003000E4FFFACFE4FF00EE2AF0140EE80403E335
:10004000EECFE4FFFBD700EE00F02A0EE80403E356
:10005000EECFE4FFFBD7E652A1D8E55200EE29F03F
:100060002A0EE80403E3E5CFEDFFFBD700EE3DF0F9
:10007000140EE80403E3E5CFEDFFFBD7E5CFFAFF6D
:10008000E5CFF4FFE5CFF3FFE5CFF5FFE5CFF7FFD1
:10009000E5CFF6FFE5CFEAFFE5CFE9FFE5CFDAFFF1
:1000A000110014D8DDEC0EF0CA0EE66E000EFFD87B
:1000B000000E2AD9960EE66E000EF9D8010E24D94C
:1000C0000A0EE66EF1EC11F0E552EED7760ED36E25
:1000D0009B8C9B8ED2980F013B6B956AAFEC0EF018
:1000E000800ECF6ECE6A490ECD6ECC6AD08E9E90B9
:1000F0009D800F0138819280C70EC0140009C06E28
:10010000F80EC0140009C06EC08EC280830EC214E7
:100110000009C26E3885418F418B96928D92928AEA
:10012000389B808A94963A9794883A99949A3A9B05
:100130009E969D96F00EC6140009C66EC68A9380E0
:10014000F288F19CF2920F011F6B206B00018A6B09
:100150008B6B8C6B8D6B8E6B8F6B906B916B926BD3
:10016000936B946B956BBE6BBF6BC06BC16BC26BBB
:10017000C36BC46BC56BC66BC76BC86BC96BF26BCB
:10018000F36BF46BF56BF66BF76BF86BF96BFA6B63
:10019000FB6BFC6BFD6BF28EF28C12009EA076D096
:1001A0009E90D9EC10F0F3CF26FFF4CF27FFF3CFCA
:1001B000E6FFF4CFE6FFB1EC0FF0E552E55226CFB3
:1001C00032F027CF33F090D8620EE66E000EA5D83D
:1001D0008EC031F08FC032F090C033F091C034F057
:1001E000C5EC0CF032C004F033C005F09ED8620EAE
:1001F000E66E000EE66EF3EC08F0E552E552E552CD
:10020000E55230C000F031C001F032C002F033C01E
:1002100003F030C0E6FF31C0E6FF87D8960EE66EE9
:10022000000EE66EC6EC07F0066E060EE15E0650A6
:10023000E66A600EE66E6A0EE66E460EE66E960E94
:10024000E66E000EE66E43EC09F0006E060EE15E0F
:10025000005000090DE01FCF32F020CF33F044D81A
:10026000CA0EE66E000E59D80F01010E256F02D09E
:100270000F01256B250502E18D8201D08D921F2B88
:10028000000E2023800ECF6ECE6A12009EA606D0EE
:10029000C7A002D013EC11F09E901200F2A206D07B
:1002A0000F01231D010B236FF2928D721200E66E77
:1002B00016EC08F0E552E55230C002F031C003F010
:1002C00032C004F033C005F030C031F003C032F06A
:1002D00004C033F005C034F0C5EC0CF032C000F0BF
:1002E00033C001F095EF01F033EC0BF031C000F0BA
:1002F00032C001F033C002F034C003F031C0E6FF79
:1003000014D834C0E6FF1200E66EE66AB0EC0FF0D7
:10031000E552E552E552E5521200E66EC6EC07F0F2
:10032000046E060EE15E0450120032C0E6FF33C0D8
:04033000E6FF1200D2
:0C0334000100062500001F0F00000F0054
:020340000000BB
:0E034200DDEC06F0FB0EDBCFF3FFDB06F35025
:1003500000090AE02BEC07F0FA0E96EC07F0F3E147
:10036000011CF1E1010E01D0000E0CEF07F0DDECF5
:1003700006F03B0EE12402E3E168E652E16E010E75
:10038000DB6A020EDB6AF90EDBCFF6FFFA0EDBCF7B
:10039000F7FFFB0EDBCFF8FF0800F550DF6EDF50F4
:1003A00002E130EF06F0250EDF5C02E023EF06F0FD
:1003B000030EDB6A040EDB6A050EDB6A060EDB6ADF
:1003C000070EDB6A45EC06F02D0EDF5C0CE02B0E11
:1003D000DF5C09E0200EDF5C06E0230EDF5C03E05B
:1003E000300EDF5C1AE1DF50300A14E0130A0FE030
:1003F000030A0AE00B0A05E0060AE4E1030EDB80CB
:10040000E1D7030EDB82DED7030EDB84DBD7030EDE
:10041000DB86D8D7030EDB88D5D72A0EDF5C1BE13D
:1004200041EC06F08FEC06F010E0030EDB80326842
:100430003368130EDBCF37F0140EDBCF38F0E1EC6E
:100440000DF0040E30C0DBFF03D0130E78EC06F085
:1004500045EC06F00BD0090EDB6AE6EC06F003E093
:100460005AEC07F0FAD7090E78EC06F0030EDBB071
:10047000DB982E0EDF5C1BE145EC06F02A0EDF5CFC
:100480000BE141EC06F08FEC06F003E1130ECAEC31
:1004900006F045EC06F00BD0090EDB6AE6EC06F040
:1004A00003E05AEC07F0FAD7090ECAEC06F0680E22
:1004B000DF5C07E145EC06F0680EDF5C1DE1030E32
:1004C00018D0740EDF5C17E07A0EDF5C14E0480E83
:1004D000DF5C06E0540EDF5C03E05A0EDF5C02E1F5
:1004E000020E07D06C0EDF5C03E06A0EDF5C04E1F5
:1004F000010E1DEC07F0C9DBDF506E0A01E17FD36E
:100500001E0A01E192D1200A01E18FD13F0A01E1E7
:1005100049D11A0A01E146D10D0A01E143D1200A6D
:1005200001E140D13A0A01E13DD1200A01E13AD18D
:10053000260A01E135D10D0A01E132D11A0A01E1A1
:10054000D9D0200A4AE0300A1FE0460A0EE0250A08
:1005500001E083D3D950F90FE96EFF0EDA20EA6E7D
:10056000010EEE5E000EEE5AEE5A2BEC07F0250E51
:10057000E66E95DB03E1011C01E169D327EC07F08E
:1005800001E26BD3DB2A69D3080EDB6A040EDB5071
:10059000010806E2040EDB04EFEC06F0DB508BDB17
:1005A000080EDB5009E0030EDB50010B05E172DBA6
:1005B00001E04DD3080EDB6A64DBEFCFDFFF9FEC79
:1005C00007F003E1011C01E142D327EC07F001E34E
:1005D000DB2A60DB01E141D33AD3070EDB5002088E
:1005E0000FE16BEC07F0030E32EC07F00E0EEECFCE
:1005F000DBFF0F0EEECFDBFF100EEECFDBFF20D0C8
:10060000F70EDBCF03F0F80EDBCF04F0020E035E33
:10061000000E045AF70E03C0DBFFF80E04C0DBFF28
:1006200003C0E9FF04C0EAFF22EC07F0026A0E0EE5
:1006300000C0DBFF0F0E01C0DBFF100E02C0DBFFAE
:100640000E0EDBCFE6FF0F0EDBCFE6FF100EDBCF8B
:10065000E6FFA8EC11F0E552E552E552130E31C069
:10066000DBFF140E32C0DBFF060EDB5005E0130E7D
:1006700066EC07F001E26ADB8AEC07F002E2130E97
:1006800037DB4DEC07F006E0040E66EC07F002E203
:10069000050E2EDB030EDBB005D0FCDA01E0D7D26D
:1006A000080EDB6A090EDB6A0E0EDBCFF6FF0F0EBB
:1006B000DBCFF7FF100EDBCFF8FF0800F550DF6E41
:1006C000DF5014E090EC07F011E29FEC07F003E13B
:1006D000011C01E1BCD2BBDB01E3DB2A090EDB2AF2
:1006E000D9500E0FE96E000ECBDBE7D7D3DA01E16C
:1006F000B4D2ADD2C6DA110EEECFDBFF120EEDCFC3
:10070000DBFF110EDBCFE6FF120EDBCFE6FF9AEC2C
:1007100011F0E552E552130EF3CFDBFF140EF4CFC8
:10072000DBFF060EDB5004E0130ED0DB01E20EDB34
:100730008AEC07F002E2130EDBDAAFDB05E0040E11
:10074000C5DB02E2050ED4DA030EDBB005D0A2DA77
:1007500001E07DD2080EDB6A090EDB6A110EDBCFE9
:10076000E9FF120EDBCFEAFFEFCFDFFFDF5014E02F
:10077000D7DB12E2E4DB03E1011C01E168D267DBB5
:1007800001E3DB2A090EDB2A110EDB2ADBCFE9FFAE
:10079000120EE8E3DB2AE6D77DDA01E15ED257D21A
:1007A000030EDB8E070EDB0410E195DB040E5ADB33
:1007B0000A0EEECFDBFF0B0EEECFDBFF0C0EEECF03
:1007C000DBFF0D0EEECFDBFF6CD0070EDB50030816
:1007D0002CE1030EDBAE0DD0B2DA020E76DAEFCFEB
:1007E00000F0016A026A036A00AE39D0016802684B
:1007F00035D0F70EDBCF01F0F80EDBCF02F0020EA2
:10080000015E000E025AF70E01C0DBFFF80E02C0B7
:10081000DBFF01C0E9FF02C0EAFFEFCF00F00A0EE4
:1008200000C0DBFF0B0EDB6A38D0070EDB5002087E
:1008300009E1030EDBAE04D059DB02AE10D00ED0BE
:1008400055DB0DD0030EDBAE12D079DA020E3DDAA5
:10085000F9DA026A036A01AE02D002680368E2DADA
:100860000C0E02C0DBFF0D0E03C0DBFF1AD0F70E2B
:10087000DBCF02F0F80EDBCF03F0020E025E000EBB
:10088000035AF70E02C0DBFFF80E03C0DBFF02C005
:10089000E9FF03C0EAFFD6DAC5DA0C0EDB6A0D0EFB
:1008A000DB6A060EDB5005E1010EF36E050EF3CF99
:1008B000DBFF150EDB6A160EDB6AD950370F006EB0
:1008C000000EDA20016E390E00C0DBFF3A0E01C0C7
:1008D000DBFF380EDB6A080EDB6A0A0EAEDADF5089
:1008E000780A12E0200A10E0280A0CE0200A0AE048
:1008F0003F0A06E00D0A02E0200A08E1020E05D0D8
:10090000080E03D0080EDF26100E97DA030EDBBEAA
:1009100002D0DB92DB94DB50800B24E08ADAD890A3
:10092000030EEB50000A08E6000EEE5C000EEE58D7
:10093000000EEE58000EEE5815E213DA35683668F0
:100940003768386862EC11F00A0E2CC0DBFF0B0E22
:100950002DC0DBFF0C0E2EC0DBFF0D0E2FC0DBFF0A
:100960002D0E08D0030EDBA202D02B0E03D0DBA489
:1009700008D0200EF36E170EF3CFDBFF150EDB2A27
:1009800002D0170EDB6A050EDB5003E1B7D901E197
:1009900089D0F20E006E240E016E000E026E070E5C
:1009A000DBCF03F0046A056A066A03C035F004C0B1
:1009B00036F005C037F006C038F0D3D9CDEC11F0D1
:1009C00000502C24F36E01502D20F46E02502E2086
:1009D000F86EF4CFF7FFF3CFF6FF0800090EF5CF5E
:1009E000DBFF580EDF5C0FE1610EF36E090E7BD961
:1009F0000AE3200E006E090EDBCFE7FF0050E75E32
:100A0000090EE7CFDBFF070EDBCF00F0016A026AB9
:100A1000036A0FDA00C035F001C036F002C037F0CB
:100A200003C038F0EECF30F0EECF31F0EECF32F041
:100A3000EFCF33F0CDEC11F033C0EDFF32C0EDFF5E
:100A400031C0EDFF30C0EFFF390EDBCFE9FFDB0631
:100A50003A0EDBCFEAFF01E2DB06090EDBCFEFFF48
:100A6000150EDB2A4BD995E1030EDBA61DD06F0EC8
:100A7000DF5C06E1C1D918E3150EDB285BDA14D080
:100A8000780EDF5C09E0580EDF5C06E0620EDF5C8A
:100A900003E0420EDF5C08E1020EF36E160EF3CFA8
:100AA000DBFF02D0150EDB6A030EDB50100B0EE0ED
:100AB000040EDBCF00F0050EDB50D880005406E2B8
:100AC000060EDB5003E1040EDB5034DA95D90AE25E
:100AD000050EDBCFE7FF150EDB50E75E050EE7CF17
:100AE000DBFF02D0050EDB6A040EDBCF00F0160E32
:100AF00045D9D880005414E2160EDBCFE6FF150E60
:100B0000DBCFE6FF040EDBCFE6FF050EDB50E55240
:100B1000E75CE552D880E754E552D880E7545FD9C6
:100B2000030EDB50010B0BE1080EDB5008E0B2D8DE
:100B300001E08DD0080EDB50BED8080EDB6A170E20
:100B4000DB5007E088D9170EF1D903E1011C01E160
:100B50007ED0160EDB5016E07ED9300EE66E9FD8A2
:100B600002E1011C74E077D9DFCFE6FF20EC11F041
:100B7000E552E552E552F4CF01F00001F31C02E129
:100B8000011C65E0050EDBCF00F0160EDB50D880AF
:100B9000005409E2050EDBCFE7FF160EDB50E75EDF
:100BA000050EE7CFDBFF300EE66E050ECBD94FE129
:100BB000390EDB2ADBCFE9FF3A0E01E3DB2ADBCF7C
:100BC000EAFF090EEFCFDBFFDB500EE044D9090E40
:100BD000ADD902E1011C3BE0390EDB2ADBCFE9FF96
:100BE0003A0EEDE3DB2AEBD755D831E1160EDBCF19
:100BF000E6FF080EC3D8E552E7245DD82ED0070ED5
:100C0000DB50030A1CE0010A14E0030A07E07BD969
:100C1000DBCFEEFF020EDBCFEDFF1FD0F5D8056A6C
:100C200003AE02D0046805682CD8BCD805C0EEFF1E
:100C300014D0EAD803BE046824D8B4D80ED063D93F
:100C4000DBCFEFFF0AD07BD905E1011C03E1F3689C
:100C5000F46810D0FCD801E3DB2A79D9CCEF01F09D
:100C6000010EDBCF00F0020EDBCF01F000C0F3FF7E
:100C700001C0F4FF3B0EE15C02E2E16AE552E16E85
:100C8000CBD029D9020E32EF07F061D90800F55018
:100C9000DF6E1200200EE66E080EA2EF07F020ECC9
:100CA00011F0E552E552E552F3CF00F0F4CF01F038
:100CB0000001F31C1200006E016AD950010F4DD9DA
:100CC0000050EE260150ED221200045E000E055A7F
:100CD000F70E04C0DBFFF80E05C0DBFF04C0E9FF20
:100CE00005C0EAFF1200DBCFF4FFF350F45C120002
:100CF000DB50E76E040EE7CFDBFF12000A0EDBCFFE
:100D000000F00B0EDBCF01F00C0EDBCF02F00D0E6E
:100D1000DBCF03F000500110021003101200130E7D
:100D2000EECFDBFF140EEDCFDBFF130EDBCF00F0B9
:100D3000140EDBCF01F00001800E01141200F70E3B
:100D4000DBCF04F0F80EDBCF05F01200050EDB5010
:100D5000E66ED950130F01D9E552E750EE6EED6AF9
:100D600012000A0EDBCF30F00B0EDBCF31F00C0E91
:100D7000DBCF32F00D0EDBCF33F01200DBCFE6FF1E
:100D8000150EDBCFE6FF050EDB50E552E724E552FA
:100D9000E7241200DB50CED8010EF36E060EF3CF1F
:100DA000DBFF1200EE50EFCFEAFFE96E02C0EEFF6C
:100DB00003C0EEFF04C0EEFF1200D9CFE6FFDACF8A
:100DC000E6FFE1CFD9FFE2CFDAFF1200DFCFE6FF87
:100DD000E66A1EEC12F0E552E552F3501200E76E9F
:100DE000080EE7CFDBFF1200EECF00F0EECF01F0F0
:100DF000EFCF02F0036A1200050EDBCF00F0150EF4
:100E0000DB50D88000541200010EDBCF02F0020E3E
:100E1000DBCF03F0046A1200E552E5CFDAFFE7CF3B
:100E2000D9FF12000A0E00C0DBFF0B0E01C0DBFF72
:100E30001200D9500A0FADEF07F0F36E070EF3CF93
:100E4000DBFF1200EECF00F0EFCF01F01200010E39
:100E5000DB2A020E1200FC0EDBCFE6FFFD0EDBCF1D
:100E6000E6FF1200005E000E015AF70E00C0DBFF25
:100E7000F80E01C0DBFF00C0E9FF01C0EAFF12006D
:100E8000DA20EA6EEF2AEECFF6FF000EEF22EECF69
:100E9000F7FFEF22EECFF8FF1200040EDBCFE6FFE4
:100EA000130EDB50E552E75C9ADFDB5004DF060EE1
:100EB000DB501200090EDB500A0DF350DF24D00F77
:100EC000E76E090EE7CFDBFF45EF06F0DB50F36E70
:100ED000050E73EF06F0F70EDBCF00F0F80EDBCF58
:100EE00001F01200DFCFE6FF4FEF06F028DF030E20
:100EF000ECDEF4EF06F0A1EC01F0E552E552E5522C
:100F0000E55200091200BDDEEE50EFCFEAFFE96EB8
:100F1000010E1200130EDB50F36E040E73EF06F099
:100F2000040EDB50F36E090E73EF06F0DBCFE6FF25
:100F30004FEF06F0E76E050EE7CFDBFF12008BDF09
:100F400072EF07F0DBCFE6FF86DF7BEF07F0D950CB
:100F5000F90FE96EFF0E40EF07F0E96E000EDA20A0
:040F6000EA6E120023
:0C0F640005DB33C001F00A0E321804E176
:100F7000015002E1010E01D0000E74D2F9DA3250B4
:100F8000331002E1010E01D0000E6CD25FDB2C0E9B
:100F9000D0D90ADA6BDAF90EDBCFEEFFFA0EDBCF2F
:100FA000EEFFFB0EDBCFEEFFFC0EDBCFEEFF4BDBED
:100FB0004CDA49EC0BF0BCDAE3DA200E386E410E65
:100FC000396E04DAF4EC0CF0010A07E13CDBEE6A5E
:100FD000EE6A200EEE6E410EEE6E2C0EAAD9FFD9EF
:100FE0002C0EA7D936DA3ED20DDBDED93FDAEECFB2
:100FF00000FFEECF01FFEECF02FFEFCF03FF23DBB9
:1010000024DA48EC0BF094DABBDA386A396AF5DA9C
:1010100005E119DBEE6AEE6AEE6AEE6A280E89D9FE
:10102000DED9280E86D915DA53DA1CD2EBDAB8DA13
:10103000C0DAECDA8FDA3DDA15D29ADA32C0F3FF91
:1010400033C0F4FF0FD2E9DAF3CF0EFFF4CF0FFF76
:101050000F01F350F41002E1E5DAC4D0280E8CDA67
:1010600052DA2C0E89DA56DA0F01006B016B026B33
:10107000036B0C6B0D6B280E7FDA45DAF0DA0FDAB2
:10108000FDEC0CF0010A01E0ACD01CDA31C008F034
:1010900032C009F033C00AF034C00BF0010E0F016A
:1010A000116A0C25106E0D51112210C032F011C0C2
:1010B00033F035EC0BF031C00CF032C00DF033C022
:1010C0000EF034C00FF03DDA0CDADFEC0BF012DA80
:1010D00000CF36F001CF37F002CF38F003CF39F030
:1010E00032EC0CF025DA1A6A1B6A800E1C6E3F0E79
:1010F0001D6E010E0F01236A0C25226E0D51232255
:1011000022C032F023C033F035EC0BF031C01EF0BA
:1011100032C01FF033C020F034C021F012DA1AC000
:1011200031F01BC032F01CC033F01DC034F0DFECD6
:101130000BF031C016F032C017F033C018F034C0D5
:1011400019F008CF28F009CF29F079DA08CF32F06A
:1011500009CF33F09FEC0CF02EC028F02FC029F0FF
:10116000D89028362936D89028362936FD0EDB50FF
:10117000282471DA2920EA6EEECF24F0EECF25F094
:10118000EECF26F0EFCF27F024C036F025C037F0A1
:1011900026C038F027C039F016C031F017C032F041
:1011A00018C033F019C034F032EC0CF031C012F03A
:1011B00032C013F033C014F034C015F0C2D906D9D0
:1011C00049EC0BF031C000FF32C001FF33C002FF19
:1011D00034C003FF0F01082B000E09230C2B0D2335
:1011E0004DD776D93FD119DA050EF35C000EF458CD
:1011F00002E218DA47D0006A016A800E026E3E0EE3
:10120000036E0A0EE76E8DD9E7500826000E0922FC
:1012100016DA08C032F009C033F09FEC0CF02EC093
:1012200008F02FC009F0D89008360936D890083653
:101230000936FD0EDB5008240EDA0920EA6E2FD99C
:10124000C5D832EC0CF0F8D8046A056A066AE5D80D
:101250000C067BD849EC0BF0EFD8046A056A066AE5
:1012600096D9046A056A800E066E91D96AD932EC65
:101270000CF0E2D831C030F032C031F033C032F07F
:1012800034C033F0EFD003D96DDEE552E5520108EA
:1012900002E0000E47D0280E6FD93CD90F010C6B2D
:1012A0000D6BDDD98FD9366A376A800E386E400EE5
:1012B000396E17D948EC0BF01DD943D99ED931E1CD
:1012C0000ACF04F00BCF05F045D9F90EDBCF06F0BD
:1012D000FA0EDBCF07F025D906C036F007C037F08D
:1012E00008C038F009C039F088D902E0010E1AD0E0
:1012F0000F01010E0A5F000E0B5B0A0E0A27000E9B
:101300000B239DD90ACF32F00BCF33F09FEC0CF0BA
:101310002EC00AFF2FC00BFF0F010C2B000E0D2358
:10132000C0D7000E9FD0D9CFE6FF640EF36EF46AEB
:1013300099D0E76EFD0EDBCFE9FFFE0EDBCFEAFFB3
:10134000E750E926000EEA2212000D5A78D90CC0A7
:1013500032F00DC033F09FEC0CF02EC00CF02FC01B
:101360000DF0D8900C360D36D8900C360D36FD0E9B
:10137000DB500C2470D90D20EA6E24D908C036F059
:1013800009C037F00AC038F00BC039F024D932EC6C
:101390000CF0CED8D6D804CF31F005CF32F006CF3E
:1013A00033F007CF34F01200EECF02F0EECF03F0AF
:1013B000EECF04F0EFCF05F002C031F003C032F001
:1013C00004C033F005C034F0C5EF0CF000C031F0BC
:1013D00001C032F002C033F003C034F01200E0D894
:1013E00027D9E7D849EC0BF011D929D99FEC0CF09B
:1013F0002EC004F02FC005F02EC032F02FC033F005
:1014000035EC0BF098EF0AF0EECF00F0EECF01F0E4
:10141000EECF02F0EFCF03F012003E0E076E0A0E81
:10142000E76EFB0EDBCF0CF0FC0EDBCF0DF0E750D0
:101430000C26000E0D22120031C004FF32C005FF41
:1014400033C006FF34C007FF1200CED8F1D8EBEF4F
:101450000AF031C0EEFF01C0EEFF02C0EEFF03C094
:10146000EEFF1200E552E7CFD9FF120032C000F0C4
:1014700033C001F0D89000360136D89000360136DE
:10148000FD0EDB500024E7D80120EA6E1200DED802
:10149000FD0EDBCFE6FFFE0EDBCFE6FF1200A4D889
:1014A00004C036F005C037F006C038F007C039F088
:1014B000120000C030F001C031F002C032F003C0B1
:1014C00033F012000CCF32F00DCF33F035EF0BF0CC
:1014D00000CF30F001CF31F002CF32F003CF33F044
:1014E000120008C031F009C032F00AC033F00BC05E
:1014F00034F0120031C004F032C005F033C006F001
:1015000034C007F01200C5EC0CF032C008FF33C045
:1015100009FF1200C5EC0CF032C00AFF33C00BFF0C
:101520001200FB0EDBCF08F0FC0EDBCF09F012003F
:1015300031C000F032C001F033C002F034C003F01B
:10154000120031C036F032C037F033C038F034C04A
:1015500039F01200D89004360536D8900436053696
:10156000FD0EDB50042477D80520EA6E04EF0AF064
:101570006DD869D8D4EF09F0DCDE46DFE6EF09F07C
:1015800062D867DF60D840DF366A376A120045DF0D
:10159000030E0C5E000ED9DE48EC0BF01CEF0AF0D7
:1015A000EECF06F0EECF07F0EECF08F0EFCF09F068
:1015B000120006C031F007C032F008C033F009C095
:1015C00034F01200EECF08F0EECF09F0EECF0AF0C3
:1015D000EFCF0BF0120004C031F005C032F006C0AE
:1015E00033F007C034F01200EECF04F0EECF05F078
:1015F000EECF06F0EFCF07F01200E8DEFDEC0CF0C6
:10160000010A120023D8280E99EF09F0C5EC0CF05E
:1016100032C004F033C005F0120039DF0EDDE552B0
:10162000E5521200006A016A026A036A59EF0AF081
:10163000366A376A800E386E3F0E396E12000A0E17
:10164000376E386A1200300E99EF09F0D9CFE6FFF5
:10165000E1CFD9FF1200E96EFE0EDB50120032DF3F
:0616600067DF23EF0BF031
:0A1666002B9E08D02B9E33AE05D05A
:10167000326C331EE86A33222B8E33C02DF032C019
:101680002CF03D6A3C6A8E0E2E6E2F6A77EF0DF0BD
:10169000397E2B6AB3EC0DF0CBEC0DF02BB65BEF83
:1016A0000DF02BA20AD02BAA03D02BBE5BEF0DF0BE
:1016B0002BA467EF0DF064EF0DF02BAA05D02BAC37
:1016C00067EF0DF064EF0DF02BA00AD02BA808D027
:1016D0002BBE04D02BA402D070EF0DF074EF0DF0F0
:1016E0003C6A2F6A3950345C3B6E10E331C03DF0E8
:1016F00032C02CF033C02DF034C03AF036C031F097
:1017000037C032F038C033F02B3A09D036C03DF044
:1017100037C02CF038C02DF039C03AF03B6C2B9E0E
:101720002BBC2B8E3AC02EF02BB0A3EF0DF01A0E6F
:101730003B60A3EF0DF02E6A346A2BA408D0316C05
:10174000321E331E341EE86A3222332234222BAC7E
:1017500008D03D6C2C1E2D1E2E1EE86A2C222D2238
:101760002E22306A3B5207E0343433323232313287
:1017700030323B2EF9D731503D2632502C22335097
:101780002D2234502E2230C03CF02B9E2EAE0BD09A
:101790003C6C3D1E2C1E2D1E2E1EE86A3D222C2266
:1017A0002D222E222B8E2EA006D0D8802D322C3228
:1017B0003D323C323A2A3AC02EF077EF0DF02B6AD8
:1017C000B3EC0DF0CBEC0DF02BB65BEF0DF02BA2D4
:1017D00005D02BBA5BEF0DF062EF0DF02BBA6EEF78
:1017E0000DF02BA005D02BB85BEF0DF06EEF0DF0D8
:1017F0002BB862EF0DF02F6A7F0E34242E6EE86A4C
:101800002F2239502E5EE86A2F5A1A0E3A6E346A29
:101810003C6A3D6A2C6A2D6A3650315E3750325A26
:101820003850335A000E345A09E7365031263750B3
:10183000322238503322000E342201D03C8AD89014
:101840003136323633363436D8903C363D362C3647
:101850002D363A2EE1D7335032103110D8A43C8ABD
:1018600077EF0DF02B6AB3EC0DF0CBEC0DF02BB64F
:101870005BEF0DF02BA205D02BB85BEF0DF062EF04
:101880000DF02BAA05D02BB05BEF0DF062EF0DF041
:101890002BB002D02BA802D06EEF0DF02F6A39507A
:1018A00034242E6EE86A2F227E0E2E5EE86A2F5AAE
:1018B0003C6A3D6A2C6A2D6A38503302F4CF2DF011
:1018C000F3CF2CF037503302F3503D26F4502C2246
:1018D000000E2D2238503202F3503D26F4502C22B7
:1018E000000E2D2236503302F3503C26F4503D2298
:1018F000000E2C222D2237503202F3503C26F45099
:101900003D22000E2C222D2238503102F3503C266D
:10191000F4503D22000E2C222D2236503202F4507B
:101920003C26000E3D222C222D2237503102F4504D
:101930003C26000E3D222C222D2277EF0DF02A6A44
:1019400038AEA8EF0CF0376C381EE86A38222A1E31
:1019500033AEB0EF0CF0326C331EE86A33222A1E2D
:1019600008EC12F033BEC0EF0CF02AAE000C326C63
:10197000331EE86A33222E6C2F1EE86A2F22000CD9
:101980002ABEB7EF0CF02B88FF0C2B6AB3EC0DF0DE
:101990002BB6CFEF0CF02BA20ED02BB405D07F0EC0
:1019A000336EFF0E326E1FD0800E336E326A1BD044
:1019B000336A326A18D02BB0FBD78F0E3460EDD764
:1019C0007E0E3464F5D78E0E345C05E0D890333249
:1019D0003232342AF8D72BA406D0326C331EE86A90
:1019E000332233AEE5D7120006EC0DF02BB6000C17
:1019F0002BB0000C2BB4000C010C06EC0DF02BB638
:101A0000000C2BB0000C2BA4000C010C2B6AB3ECC7
:101A10000DF0CBEC0DF02BB612002BAE08D02BA0A6
:101A200004D02BA802D02B8012002B90120039502A
:101A3000345C0BE13850335C08E13750325C05E12F
:101A40003650315C02E12B801200D8A002D02B8EE0
:101A500010D0345039C034F0396E335038C033F0C0
:101A6000386E325037C032F0376E315036C031F0F8
:101A7000366E3950345C10E0FF0F09E02B902BB428
:101A800003D02BAE2B8412002BAE2B941200392ADC
:101A9000D8903832373236323650315E3750325A7B
:101AA0003850335A33BEEAD7D890313632363336CF
:101AB000342EF8D7C8D77F0E346EFF0E336E326ED9
:101AC000316E12007F0E2BBEFF0E346E02D07F0EE1
:101AD000346E800E336E326A316AF3D72BAE04D087
:101AE000800E346E336AF7D7346A336AF4D72D50D8
:101AF0002C103D103C10F8E02FBEF0D72DBE0CD0BE
:101B00002E502F10EBE0D8903C363D362C362D363B
:101B10002E06D8A02F06F2D72F50D4E12E28D2E0DF
:101B20003CAE11D07F0E3C1402E13DA00CD03D2A0A
:101B3000E86A2C222D2207E3D8802D322C323D3248
:101B40002E2A2E28BFE02E50C9E03DC031F02CC017
:101B500032F02D34336E2E30346E3332349E2BBE41
:101B6000348E61EF0DF03336343602E32B842B7E56
:101B700006E12B80346A336A326A316A12003428F3
:101B800003E0D88033321200D890333202E12B8246
:101B900012002B8612003836393602E32B8C2B7E4E
:101BA00006E12B88396A386A376A366A12003928A2
:101BB00003E0D88038321200D8903832EAE12B8A1C
:101BC000120033C03DF032C03CF032503702F4CF47
:101BD00031F0F3CF30F033503802F4CF33F0F3CF9D
:101BE00032F03702F3503126F4503222E86A3322C1
:101BF0003C503802F3503126F4503222E86A332246
:101C000038AE07EF0EF03C50325E3D50335A3DAED9
:0C1C1000000C3750325E3850335A000C84
:041C1C00D9CFE6FF37
:101C2000E1CFD9FF020EE1269580958295849586B5
:101C30008C8C000000008350DF6E8C9CDF50100DF8
:101C4000010EF3CFDBFF8C8C000000008350DF6EB1
:101C50008C9C000EDB98DB9ADB9CDB9E010EDBCFBD
:101C6000E7FFDF50E712010EE7CFDBFF959095927B
:101C700095949596010EDB5000D0006E020EE15C4B
:101C800002E2E16AE552E16E0050E552E7CFD9FF8A
:101C90001200D9CFE6FFE1CFD9FF030EE126010EF6
:101CA000DB6A020EDB6A8C988C8AB8DFDF6ED95053
:101CB000010FE96EDACFEAFFE80EEE1802E1030E3B
:101CC000ED1804E18A828A848A86FCD7010EDB2A19
:101CD000020E01E3DB2ADFBEE8D78C9A0400010E76
:101CE000DB6A020EDB6A030EE15C02E2E16AE552A6
:101CF000E16EE552E7CFD9FF1200D9CFE6FFE1CF81
:101D0000D9FFE652FE0EDB5002E08C9801D08C88A1
:101D10008C9A8C8C8C968C948C928C900000000009
:101D20008C50DF6E000EDB90DB92DB94DB96FD0EB9
:101D3000DB500F0BDF108C6E000000008C9CE55216
:101D4000E552E7CFD9FF120099D8FD0EDB380F0B13
:101D5000E66EA1D8FD0EDBCFE6FF9DD88BD0959E19
:101D6000959C959A959C95909592959495968C9E18
:101D70008C8E8C988C9A8C9C8C8C8BDF020E96D8D7
:101D8000020E94D8080E92D8E66A54D80C0E8ED85B
:101D9000E66A50D8010EE66E8CD8E66A4BD8020E81
:101DA00085D8040E83D80E0E81D807D8E66AE66A75
:101DB00009D8E552E5528C8E1200010EE66EE66EF1
:101DC00035EF0FF05BD8FD0EDB50010812E3FE0E7D
:101DD000DB500F080EE3FD0EDB0404E1FE0EDB50CA
:101DE000C00903D0FE0EDB508009E66E010EE66EE0
:101DF0003CD840D043D8FE0EDBCFE6FFE66A35D8AC
:101E000039D03CD840D83350300F4CD83CD82F5024
:101E1000300F48D82FD032D8E652DF6ADFCF00F03B
:101E20000CD806E0DF50DF2A006E07D83BD8F6D783
:101E3000E55220D0010E59EF0FF0016A026AD95025
:101E4000FC0FE96EFF0EDA20EA6EEE500024F36E0E
:101E5000EE500120F46EEE500220F86EF4CFF7FF42
:101E6000F3CFF6FF0800F55012006EDFE552E552A1
:101E700049EF0EF0E552E7CFD9FF1200D9CFE6FFC8
:101E8000E1CFD9FF12000A0E006E386EFE0EDBCFD6
:101E900033F06BEF12F0FE0EDBCFE6FF2EDFE552E4
:101EA000E5521200E66EA6DFE5521200E66E1AEF6A
:0E1EB0000FF0E66E22DFE552E55249EF0EF02C
:021EBE00A0D8AA
:101EC0008F0E006E240EBAD80BEC0FF0E552E552DF
:101ED000E5520D0EE66EE66AE2EC0EF0E552E552D2
:101EE000FB0EDBCFE6FF01EC0FF0E552B5D088D852
:101EF000FB0EDBCF00F0FC0EDBCF01F0310E010258
:101F0000F3CF01F00002F3CF00F0F45001260A0EE7
:101F1000376E386AF3CF32F001C033F008EC12F0BC
:101F200032C000F033C001F032C0E6FF33C0E6FF3C
:101F30008A0E026E240E036E046A02C0E6FFE66E8D
:101F400004C0E6FF83D8056E070EE15E055010CF92
:101F5000E6FF86D82E0EE66E48D8560EE66E61D0A5
:101F600036D0D9CFE6FFE1CFD9FFFD0EDBCF00F0B1
:101F7000FE0EDBCF01F0050ED89001320032E804EE
:101F8000FBE100500F011F0BF36EE00E4015F31044
:101F9000406F62D01CD034D8D950F90FE96EFF0ED3
:101FA000DA20EA6EEECFE6FFEECFE6FFEECFE6FFF9
:101FB000EFCFE6FF800E006E240E2FD8090E33D827
:101FC0004FD816CFE6FF4CD817CFE6FF2AD018D847
:101FD000FB0EDBCFE6FFFC0EDBCFE6FF850E006ECF
:101FE000240E1BD8070E1FD81CD03AD811CFE6FFFD
:101FF00037D812CFE6FF34D813CFE6FF30EF10F01A
:10200000D9CFE6FFE1CFD9FFFD0EDBCFE6FFE66AD1
:10201000E2EC0EF0E552E552120010D817D8036E2C
:1020200012001ED819D0E15E035010CFE6FFDDDFAD
:1020300014CFE6FF15D815CFE6FF1200016E026A35
:1020400000C0E6FFE66E02C0E6FF1200100EE66E6C
:102050000F0EE66E34EF10F0E552E7CFD9FF120015
:08206000FAEC0EF0E55212004B
:08206800D9CFE6FFDACFE6FF55
:10207000E1CFD9FFE2CFDAFFE652E652E652E6526E
:10208000D950F90F006EFF0EDA20016E020E00C06B
:10209000DBFF030E01C0DBFF020EDBCFE6FF030E0A
:1020A000DBCFE6FFF90EDBCFE6FFFA0EDBCFE6FF74
:1020B000FB0EDBCFE6FFD950FC0FE66EFF0EDA20F9
:1020C000E66EB7EC01F0006E070EE15C02E2E16A39
:1020D000E552E16E0050F3CFDEFFF4CFDDFFFC0EE2
:1020E000DBCFE9FFFD0EDBCFEAFFEF6ADECF00F0CA
:1020F000DDCF01F000C0F3FF01C0F4FF040EE15C8E
:1021000002E2E16AE552E16EE552E5CFDAFFE7CFA0
:04211000D9FF1200E1
:0C211400340EF66E030EF76E000EF86E2F
:102120000F010900F550336F0900F550346F03E1DA
:10213000336701D03DD00900F5502E6F0900F550EE
:102140002F6F0900F550306F09000900F550E96E56
:102150000900F550EA6E090009000900F550316FD9
:102160000900F550326F09000900F6CF35FFF7CFAF
:1021700036FFF8CF37FF2ECFF6FF2FCFF7FF30CF48
:10218000F8FF0F01315302E1325307E00900F55027
:10219000EE6E3107F8E23207F9D735CFF6FF36CFCA
:1021A000F7FF37CFF8FF0F013307000E345BBFD7BF
:0221B00012001B
:0E21B200D9CFE6FFE1CFD9FF020EE126DE6AAB
:1021C000DD6AC282C2B2FED7C450DE6EDD6ADECFE7
:1021D00002F0DDCF03F002C003F0026AC350021028
:1021E000DE6E03C0DDFFD9CFE9FFDACFEAFFFF0ED5
:1021F000EE1807E1030EED1804E1FE0EDE6E030E8D
:10220000DD6EDECF00F0DDCF01F000C0F3FF01C0D6
:10221000F4FF020EE15C02E2E16AE552E16EE55292
:10222000E7CFD9FF1200808AC950016AF36E01C05E
:10223000F4FF1200D9CFE6FFE552E7CFD9FF120035
:10224000D9CFE6FFDACFE6FFE1CFD9FFE2CFDAFF61
:10225000FB0EDBCF00F0FC0EDBCF01F00001800EA7
:1022600001141AE1FB0EDBCFE9FFFC0EDBCFEAFF26
:10227000EECFF3FFEDCFF4FFEE2A000EEF22F3CF07
:10228000E9FFF4CFEAFFFD0EDBCFEFFFEF50016A6D
:10229000F36E01C0F4FF10D0FB0EDB50FE0806E128
:1022A000FD0EDBCFE6FF5DEC12F005D0FD0EDBCFBF
:1022B000E6FF03EC00F0E552E552E5CFDAFFE7CFA9
:0422C000D9FF120030
:0C22C40030503502F3CF2CF0F4CF2DF099
:1022D0003602F3502D26000EF4202E6E30503702B9
:1022E000F3502E26000EF4202F6E30503802F3509B
:1022F0002F2631503502F3502D26F4502E22000E99
:102300002F2231503602F3502E26F4502F22315016
:102310003702F3502F2632503502F3502E26F45058
:102320002F2232503602F3502F2633503502F3500D
:042330002F26120042
:0C233400FE0EE3CFE9FFFF0EE3CFEAFF4F
:10234000F36AF46AEE5203E0F34AF42AFBD7120070
:10235000FF0EE3CFF8FFE552FF0EE3CFF7FFE552A4
:10236000FF0EE3CFF6FFE552E66AE66AE66A090089
:10237000F55209E0FD0EE32A05E1FE0EE32A02E133
:10238000FF0EE32AF4D7FD0EE3CF31F0FE0EE3CFCC
:0A23900032F0FF0EE3CF33F012002D
:06239A002F6A2E6A2D6A75
:1023A0002C6A200EE76ED89030363136323633360E
:1023B0002C362D362E362F3635502C5C36502D5877
:1023C00037502E5838502F5809E335502C5E365070
:1023D0002D5A37502E5A38502F5A302AE72EE4D72C
:0223E0001200E9
:0E23E200FF0EE3503F6EEF0E01D0F30EE76EDC
:1023F000E72EF8EF11F00C0E3E6EE76AE72EFEEFC7
:1024000011F03E2EFDEF11F03F2EF6EF11F012000D
:102410002F6A2E6A100EE76ED890323633362E367B
:102420002F3637502E5C38502F5805E337502E5E2C
:0C24300038502F5A322AE72EF0D7120045
:04243C00F36AF46AE1
:10244000FF0EE124E96EFF0EE220EA6EED6607D092
:102450002F0EEF6404D03A0EEF6001D0F32A120081
:10246000380EF36E00EE00F00F0E01D81200EA6095
:1024700002D0EE6AFCD7F350E9601200EE6AFCD796
:10248000253038640025303664002530346400453A
:0E24900043472073746174652069733A20001D
:02249E001EEE30
:1024A00000F02EEE00F0F86A2B9C8AEC10F082EC23
:0A24B00012F051EC00F0FBD712000F
:0624BA00FF0EE350ACBA76
:1024C00004D0AF6AAB8EAC8A949CACA2FED7AD6E42
:0624D000F36EF46A120035
:0A24D6002F6A080EE76ED890333627
:1024E0002F3638502F5C02E32F6E332AE72EF7D7B2
:0224F0001200D8
:0E24F200303132333435363738396162636445
:032500006566000D
:022504001200C3
:0A2506000000000000000000003299
:052510000005000500BC
:020000040030CA
:0100010039C5
:010003003CC0
:010006008574
:00000001FF
