:020000040000FA
:0600000010EF1CF01200DD
:020006001200E6
:0800080007EF00F01200DACF4F
:10001000E4FFE2CFDAFFE9CFE4FFEACFE4FFF6CF77
:10002000E4FFF7CFE4FFF5CFE4FFF3CFE4FFF4CF35
:10003000E4FFFACFE4FF00EE00F0140EE80403E35F
:10004000EECFE4FFFBD700EE14F0140EE80403E358
:10005000EECFE4FFFBD7E65293D8E55200EE27F04F
:10006000140EE80403E3E5CFEDFFFBD700EE13F039
:10007000140EE80403E3E5CFEDFFFBD7E5CFFAFF6D
:10008000E5CFF4FFE5CFF3FFE5CFF5FFE5CFF7FFD1
:10009000E5CFF6FFE5CFEAFFE5CFE9FFE5CFDAFFF1
:1000A000110009D866D81FEC18F0050EE66EC1ECF9
:1000B0001BF0E552FAD7760ED36E9B8C9B8ED298AE
:1000C0000F013B6B956AB4EC17F0800ECF6ECE6AD1
:1000D000490ECD6ECC6AD08E9E909D800F013881E6
:1000E0009280C70EC0140009C06EF80EC01400093B
:1000F000C06EC08EC280830EC2140009C26E3885E5
:10010000418F418B96908D9096928D9293908A908C
:1001100093928A929388938A938C938E6288628A50
:10012000628C628EF2860F01006B016B000EE66E30
:10013000010EE66EFDEC03F0E552E552280EE66E88
:10014000010EE66EFDEC03F0E552E552500EE66E50
:10015000010EE66EFDEC03F0E552E5528C0EE66E04
:10016000010EE66EFDEC03F0E552E552F28CF28EE4
:100170001200B36AB26A490EB16EB46AA19212005B
:100180009EA0C7D2F29E010E0F01045D01E2BCD217
:10019000DFEC11F0F3CF13FFF4CF14FFF3CF08F02F
:1001A000F4CF09F084EC14F007C014F008C015F087
:1001B00009C016F00AC017F015CFE9FF16CFEAFF05
:1001C000020ED890E936EA36E806FBE1000EE92691
:1001D000010EEA2214C0EEFF15C0EEFF16C0EEFFBE
:1001E00017C0EEFF010E0F011525156F000E162129
:1001F000166F0A0E0D6E0E6A15CF08F016CF09F0B5
:10020000D8EC1BF004C015FF05C016FF04C018F0A1
:1002100005C019F01806000E195A18C0E6FF19C0DB
:10022000E6FF000EE66E010EE66EB7EC04F0E55256
:10023000E552E552E55206C014F007C015F008C0BB
:1002400016F009C017F017CFE9FF18CFEAFF020E2A
:10025000D890E936EA36E806FBE1280EE926010ED9
:10026000EA2214C0EEFF15C0EEFF16C0EEFF17C065
:10027000EEFF010E0F011725176F000E1821186FE2
:100280000A0E0D6E0E6A17CF08F018CF09F0D8ECE1
:100290001BF004C017FF05C018FF04C0E6FF05C02F
:1002A000E6FF0FCF08F010CF09F084EC14F007C080
:1002B00014F008C015F009C016F00AC017F007C006
:1002C000E6FF08C0E6FF09C0E6FF0AC0E6FF280E09
:1002D000E66E010EE66E6BEC06F0186E080EE15E3F
:1002E0001850000901E10CD219CFE6FF1ACFE6FF42
:1002F000500EE66E010EE66E2BEC04F0E552E55270
:10030000E552E55206C01BF007C01CF008C01DF006
:1003100009C01EF006C007F01CC008F01DC009F09F
:100320001EC00AF0C3EC15F00F010850005D196EF5
:10033000095001591A6E1950075D1A50085901E306
:10034000DFD1000ED8800055000E015501E3D8D151
:1003500017CFE6FF18CFE6FF280EE66E010EE66E19
:100360002BEC04F0E552E552E552E55206C014F0DC
:1003700007C015F008C016F009C017F01BCFE9FF41
:100380001CCFEAFF020ED890E936EA36E806FBE118
:100390008C0EE926010EEA2214C0EEFF15C0EEFF16
:1003A00016C0EEFF17C0EEFF010E0F011B251B6FDD
:1003B000000E1C211C6F0A0E0D6E0E6A1BCF08F07A
:1003C0001CCF09F0D8EC1BF004C01BFF05C01CFFBC
:1003D00004C0E6FF05C0E6FF8C0EE66E010EE66E79
:1003E00004EC07F0E552E552E552E55206C014F080
:1003F00007C015F008C016F009C017F006C007F0D6
:1004000015C008F016C009F017C00AF0C3EC15F0CB
:1004100008C00FFF09C010FF19CFE6FF1ACFE6FF93
:10042000500EE66E010EE66E2BEC04F0E552E5523E
:10043000E552E55206C014F007C015F008C016F0EA
:1004400009C017F006C007F015C008F016C009F083
:1004500017C00AF0C3EC15F008C002FF09C003FF83
:1004600000CF08F001CF09F084EC14F007C014F0BD
:1004700008C015F009C016F00AC017F019CFE9FF3F
:100480001ACFEAFF020ED890E936EA36E806FBE119
:10049000500EE926010EEA2214C0EEFF15C0EEFF51
:1004A00016C0EEFF17C0EEFF010E0F011925196FE0
:1004B000000E1A211A6F0A0E0D6E0E6A19CF08F07F
:1004C0001ACF09F0D8EC1BF004C019FF05C01AFFC1
:1004D0009A0E146E990E156E190E166E3F0E176E4B
:1004E00014C0E6FF15C0E6FF16C0E6FFE66E04C0C6
:1004F000E6FF05C0E6FF500EE66E010EE66E2BEC41
:1005000004F0E552E552E552E552E552E7CF17F027
:10051000E552E7CF16F0E552E7CF15F0E552E7CF09
:1005200014F006C01CF007C01DF008C01EF009C082
:100530001FF002CF08F003CF09F084EC14F007C0DD
:1005400020F008C021F009C022F00AC023F007C043
:100550000CF008C00DF009C00EF00AC00FF01CC06E
:1005600007F01DC008F01EC009F01FC00AF099EC8A
:1005700014F007C018F008C019F009C01AF00AC03A
:100580001BF007C00CF008C00DF009C00EF00AC047
:100590000FF014C007F015C008F016C009F017C01E
:1005A0000AF030EC15F0C3EC15F008C007FF09C0E5
:1005B00008FF0F01000ED8800854000E095403E311
:1005C000190E076F086BC80E075D000E085903E38C
:1005D000C80E076F086B5C0E186E8F0E196EC20E78
:1005E0001A6E3E0E1B6E18C0E6FF19C0E6FF1AC059
:1005F000E6FFE66E19CFE6FF1ACFE6FF500EE66E75
:10060000010EE66E2BEC04F0E552E552E552E552A0
:10061000E552E7CF1BF0E552E7CF1AF0E552E7CFFE
:1006200019F0E552E7CF18F006C020F007C021F01E
:1006300008C022F009C023F002CF08F003CF09F070
:1006400084EC14F007C024F008C025F009C026F09F
:100650000AC027F007C00CF008C00DF009C00EF06A
:100660000AC00FF020C007F021C008F022C009F036
:1006700023C00AF099EC14F007C01CF008C01DF06C
:1006800009C01EF00AC01FF007C00CF008C00DF032
:1006900009C00EF00AC00FF018C007F019C008F02A
:1006A0001AC009F01BC00AF030EC15F007C014F0B6
:1006B00008C015F009C016F00AC017F00C6A0D6AE0
:1006C000C00E0E6E400E0F6E9AEC14F0C3EC15F0D7
:1006D00008C009FF09C00AFF0F01000ED8800854A6
:1006E000000E095403E3140E096F0A6B960E095DA0
:1006F000000E0A5903E3960E096F0A6B0D6B0E6B21
:100700000F01002B000E0123800ECF6ECE6A9E904B
:10071000F28EF2A046D0F29E8150800B24E08150F0
:10072000400B21E00F01046B056B8A928A900B0E3F
:10073000E66E0F0EE66E090EE66E0F0EE66E070E03
:10074000E66E0F0EE66E0F0EE66E0F0EE66E5DECB9
:1007500012F0146E080EE15E1450640EE66EC1ECE9
:100760001BF0E5521CD081AE0CD0010E0F01045DD0
:1007700004E3046B056B8A920CD0010E046F8A822D
:100780000ED081AC0CD0010E0F01055D04E3056BAA
:10079000A0928A9004D0010E056FA0828A80F29008
:1007A000F28EA1A222D0F29E010E0F01045D19E388
:1007B000010E055D16E309510D5D0A510E590DE359
:1007C00009510B25146E0A510C21156E0D51145C44
:1007D0000E51155802E38D8001D08D900D2B000E27
:0C07E0000E23B36AB26AA192F28E1200DE
:0407EC000100883848
:0A07F0000000000F00001D000000D3
:0607FA00D9CFE6FFE1CFBC
:10080000D9FF0F01296B2A6B0A0E2AAF02D0D890AC
:1008100003D0295D000E2A591AE229CF14F02ACFFD
:1008200015F0D89014361536D89014361536FD0EBE
:10083000DB501424E96EFE0EDB501520EA6EEE6AE2
:10084000EE6AEE6AEE6A292B000E2A23DDD7E55206
:10085000E7CFD9FF1200D9CFE6FFE1CFD9FF0A0ECB
:10086000E76EFB0EDBCF18F0FC0EDBCF19F0E75084
:100870001826000E19221806195A0A0E0D6E0E6A55
:1008800018C008F019C009F0D8EC1BF004C018F02B
:1008900005C019F0020ED89018361936E806FBE1AB
:1008A000FD0EDB501824E96EFE0EDB501920EA6EB7
:1008B000EECF14F0EECF15F0EECF16F0EFCF17F02D
:1008C00014C006F015C007F016C008F017C009F0F4
:1008D000E552E7CFD9FF1200D9CFE6FFE1CFD9FF2C
:1008E000FB0EDBCFE9FFFC0EDBCFEAFFEECF14F00F
:1008F000EFCF15F0020ED89014361536E806FBE15E
:10090000FD0EDB501424E96EFE0EDB501520EA6E5E
:10091000F70EDBCFEEFFF80EDBCFEEFFF90EDBCFED
:10092000EEFFFA0EDBCFEEFFFB0EDBCFE9FFFC0E96
:10093000DBCFEAFFEECF14F0EFCF15F0010E142657
:10094000000E15220A0E1502F3CF15F01402F45012
:100950001526FB0EDBCFE9FFFC0EDBCFEAFFF3CF62
:10096000EEFF15C0EDFFE552E7CFD9FF1200D9CF5A
:10097000E6FFE1CFD9FF146A156A800E166E3E0EAF
:10098000176E0A0EE76EFB0EDBCF1CF0FC0EDBCF02
:100990001DF0E7501C26000E1D220A0E0D6E0E6A79
:1009A0001CC008F01DC009F09DEC15F004C01CF03F
:1009B00005C01DF0D8901C361D36D8901C361D364B
:1009C000FD0EDB501C24E96EFE0EDB501D20EA6E8E
:1009D000EECF18F0EECF19F0EECF1AF0EFCF1BF0FC
:1009E00018C00CF019C00DF01AC00EF01BC00FF0AB
:1009F00014C007F015C008F016C009F017C00AF0BF
:100A000030EC15F007C021FF08C022FF09C023FF0A
:100A10000AC024FF186A196A1A6A3E0E1B6E0A0E73
:100A2000E76EFB0EDBCF20F0FC0EDBCF21F0E750B2
:100A30002026000E21222006215A0A0E0D6E0E6A73
:100A400020C008F021C009F09DEC15F004C020F092
:100A500005C021F0D89020362136D8902036213696
:100A6000FD0EDB502024E96EFE0EDB502120EA6EE5
:100A7000EECF1CF0EECF1DF0EECF1EF0EFCF1FF04B
:100A80001CC00CF01DC00DF01EC00EF01FC00FF0FA
:100A900018C007F019C008F01AC009F01BC00AF00E
:100AA00030EC15F007C014F008C015F009C016F0BE
:100AB0000AC017F007C00CF008C00DF009C00EF016
:100AC0000AC00FF021CF07F022CF08F023CF09F0A2
:100AD00024CF0AF09AEC14F007C021FF08C022FFCF
:100AE00009C023FF0AC024FF186A196A1A6A3E0E59
:100AF0001B6E0A0EE76EFB0EDBCF20F0FC0EDBCF89
:100B000021F0E7502026000E2122030E205E000E69
:100B1000215A0A0E0D6E0E6A20C008F021C009F09D
:100B20009DEC15F004C020F005C021F0D8902036CF
:100B30002136D89020362136FD0EDB502024E96E78
:100B4000FE0EDB502120EA6EEECF1CF0EECF1DF042
:100B5000EECF1EF0EFCF1FF01CC00CF01DC00DF04B
:100B60001EC00EF01FC00FF018C007F019C008F02B
:100B70001AC009F01BC00AF030EC15F007C014F0E1
:100B800008C015F009C016F00AC017F007C00CF035
:100B900008C00DF009C00EF00AC00FF021CF07F019
:100BA00022CF08F023CF09F024CF0AF099EC14F0FB
:100BB00007C021FF08C022FF09C023FF0AC024FF8D
:100BC000186A196A800E1A6E3E0E1B6E0A0EE76EC8
:100BD000FB0EDBCF20F0FC0EDBCF21F0E750202610
:100BE000000E2122040E205E000E215A0A0E0D6E08
:100BF0000E6A20C008F021C009F09DEC15F004C079
:100C000020F005C021F0D89020362136D89020362B
:100C10002136FD0EDB502024E96EFE0EDB50212034
:100C2000EA6EEECF1CF0EECF1DF0EECF1EF0EFCF50
:100C30001FF01CC00CF01DC00DF01EC00EF01FC038
:100C40000FF018C007F019C008F01AC009F01BC057
:100C50000AF030EC15F007C014F008C015F009C018
:100C600016F00AC017F007C00CF008C00DF009C05C
:100C70000EF00AC00FF021CF07F022CF08F023CFEB
:100C800009F024CF0AF099EC14F007C021FF08C046
:100C900022FF09C023FF0AC024FF07C00CF008C0D0
:100CA0000DF009C00EF00AC00FF030EC15F007C0CF
:100CB00021FF08C022FF09C023FF0AC024FF07C08C
:100CC00006F008C007F009C008F00AC009F0E552B4
:100CD000E7CFD9FF1200D9CFE6FFE1CFD9FF0A0E47
:100CE000E76EF70EDBCF14F0F80EDBCF15F0E75010
:100CF0001426000E15221406155A0A0E0D6E0E6AE1
:100D000014C008F015C009F0D8EC1BF004C014F0B2
:100D100005C015F0F70E04C0DBFFF80E05C0DBFFC1
:100D20000F01296B2A6B0A0E2AAF02D0D89003D08C
:100D3000295D000E2A5963E2F70EDBCF18F0F80E9A
:100D4000DBCF19F0020ED89018361936E806FBE111
:100D5000FD0EDB501824E96EFE0EDB501920EA6E02
:100D6000EECF14F0EECF15F0EECF16F0EFCF17F078
:100D7000F90EDBCF1AF0FA0EDBCF1BF0FB0EDBCF48
:100D80001CF0FC0EDBCF1DF01AC00CF01BC00DF0E8
:100D90001CC00EF01DC00FF014C007F015C008F005
:100DA00016C009F017C00AF0F2EC15F0010A02E0D3
:100DB000010E26D0F70EDBCF14F0F80EDBCF15F0C6
:100DC0001406000E155A0A0E1426000E15220A0EDD
:100DD0000D6E0E6A14C008F015C009F0D8EC1BF0B7
:100DE00004C014F005C015F0F70E04C0DBFFF80EC8
:100DF00005C0DBFF0F01292B000E2A2394D7000E1C
:100E0000E552E7CFD9FF1200D9CFE6FFE1CFD9FFF6
:100E1000040EE126DE6ADE6ADE6ADD6ADD52DD523C
:100E2000A60E186E9B0E196E240E1A6E3F0E1B6EC8
:100E30000A0EE76EFB0EDBCF20F0FC0EDBCF21F0BD
:100E4000E7502026000E21222006215A0A0E0D6EA0
:100E50000E6A20C008F021C009F0D8EC1BF004C0D5
:100E600020F005C021F0020ED89020362136E80689
:100E7000FBE1FD0EDB502024E96EFE0EDB5021204D
:100E8000EA6EEECF1CF0EECF1DF0EECF1EF0EFCFEE
:100E90001FF01CC00CF01DC00DF01EC00EF01FC0D6
:100EA0000FF018C007F019C008F01AC009F01BC0F5
:100EB0000AF030EC15F007C014F008C015F009C0B6
:100EC00016F00AC017F0D9CFE9FFDACFEAFFEECF6C
:100ED00007F0EECF08F0EECF09F0EFCF0AF014C024
:100EE0000CF015C00DF016C00EF017C00FF09AEC04
:100EF00014F00AC0EDFF09C0EDFF08C0EDFF07C008
:100F0000EFFFFC0E186EA90E196E710E1A6E3E0ED2
:100F10001B6E0A0EE76EFB0EDBCF20F0FC0EDBCF64
:100F200021F0E7502026000E2122020E205E000E46
:100F3000215A0A0E0D6E0E6A20C008F021C009F079
:100F4000D8EC1BF004C020F005C021F0020ED890B0
:100F500020362136E806FBE1FD0EDB502024E96E49
:100F6000FE0EDB502120EA6EEECF1CF0EECF1DF01E
:100F7000EECF1EF0EFCF1FF01CC00CF01DC00DF027
:100F80001EC00EF01FC00FF018C007F019C008F007
:100F90001AC009F01BC00AF030EC15F007C014F0BD
:100FA00008C015F009C016F00AC017F0D9CFE9FF44
:100FB000DACFEAFFEECF07F0EECF08F0EECF09F080
:100FC000EFCF0AF014C00CF015C00DF016C00EF0F3
:100FD00017C00FF09AEC14F00AC0EDFF09C0EDFF46
:100FE00008C0EDFF07C0EFFF0E0E186E2D0E196E34
:100FF000B20E1A6E3D0E1B6E0A0EE76EFB0EDBCFB5
:1010000020F0FC0EDBCF21F0E7502026000E21223D
:10101000030E205E000E215A0A0E0D6E0E6A20C0CD
:1010200008F021C009F0D8EC1BF004C020F005C086
:1010300021F0020ED89020362136E806FBE1FD0EA5
:10104000DB502024E96EFE0EDB502120EA6EEECF4D
:101050001CF0EECF1DF0EECF1EF0EFCF1FF01CC046
:101060000CF01DC00DF01EC00EF01FC00FF018C018
:1010700007F019C008F01AC009F01BC00AF030ECE4
:1010800015F007C014F008C015F009C016F00AC02A
:1010900017F0D9CFE9FFDACFEAFFEECF07F0EECFB6
:1010A00008F0EECF09F0EFCF0AF014C00CF015C035
:1010B0000DF016C00EF017C00FF09AEC14F00AC035
:1010C000EDFF09C0EDFF08C0EDFF07C0EFFFB60E52
:1010D000186EF30E196EFD0E1A6E3C0E1B6E0A0E84
:1010E000E76EFB0EDBCF20F0FC0EDBCF21F0E750EC
:1010F0002026000E2122040E205E000E215A0A0E28
:101100000D6E0E6A20C008F021C009F0D8EC1BF06B
:1011100004C020F005C021F0020ED8902036213600
:10112000E806FBE1FD0EDB502024E96EFE0EDB50ED
:101130002120EA6EEECF1CF0EECF1DF0EECF1EF0B8
:10114000EFCF1FF01CC00CF01DC00DF01EC00EF044
:101150001FC00FF018C007F019C008F01AC009F03E
:101160001BC00AF030EC15F007C014F008C015F0F1
:1011700009C016F00AC017F0D9CFE9FFDACFEAFFAD
:10118000EECF07F0EECF08F0EECF09F0EFCF0AF088
:1011900014C00CF015C00DF016C00EF017C00FF003
:1011A0009AEC14F00AC0EDFF09C0EDFF08C0EDFF96
:1011B00007C0EFFFA60E186E9B0E196E440E1A6E36
:1011C0003B0E1B6E0A0EE76EFB0EDBCF20F0FC0E13
:1011D000DBCF21F0E7502026000E2122050E205EF5
:1011E000000E215A0A0E0D6E0E6A20C008F021C0B2
:1011F00009F0D8EC1BF004C020F005C021F0020E6D
:10120000D89020362136E806FBE1FD0EDB50202485
:10121000E96EFE0EDB502120EA6EEECF1CF0EECF21
:101220001DF0EECF1EF0EFCF1FF01CC00CF01DC064
:101230000DF01EC00EF01FC00FF018C007F019C04F
:1012400008F01AC009F01BC00AF030EC15F007C016
:1012500014F008C015F009C016F00AC017F0D9CF75
:10126000E9FFDACFEAFFEECF07F0EECF08F0EECFDE
:1012700009F0EFCF0AF014C00CF015C00DF016C045
:101280000EF017C00FF09AEC14F00AC0EDFF09C081
:10129000EDFF08C0EDFF07C0EFFF076A086A400EC8
:1012A000096E3F0E0A6E000EDFCF0CF0010EDBCF91
:1012B0000DF0020EDBCF0EF0030EDBCF0FF030ECA3
:1012C00015F007C014F008C015F009C016F00AC0E8
:1012D00017F007C006F008C007F009C008F00AC000
:1012E00009F0040EE15C02E2E16AE552E16EE552CA
:1012F000E7CFD9FF1200D9CFE6FFE1CFD9FF040E27
:10130000E126DE6ADE6ADE6ADD6ADD52DD52420E09
:10131000186E600E196E250E1A6E3F0E1B6E0A0EA9
:10132000E76EFB0EDBCF20F0FC0EDBCF21F0E750A9
:101330002026000E21222006215A0A0E0D6E0E6A6A
:1013400020C008F021C009F0D8EC1BF004C020F048
:1013500005C021F0020ED89020362136E806FBE1C8
:10136000FD0EDB502024E96EFE0EDB502120EA6EDC
:10137000EECF1CF0EECF1DF0EECF1EF0EFCF1FF042
:101380001CC00CF01DC00DF01EC00EF01FC00FF0F1
:1013900018C007F019C008F01AC009F01BC00AF005
:1013A00030EC15F007C014F008C015F009C016F0B5
:1013B0000AC017F0D9CFE9FFDACFEAFFEECF07F086
:1013C000EECF08F0EECF09F0EFCF0AF014C00CF02A
:1013D00015C00DF016C00EF017C00FF09AEC14F007
:1013E0000AC0EDFF09C0EDFF08C0EDFF07C0EFFF29
:1013F000850E186EEB0E196ED10E1A6E3E0E1B6E18
:101400000A0EE76EFB0EDBCF20F0FC0EDBCF21F0E7
:10141000E7502026000E2122020E205E000E215AE7
:101420000A0E0D6E0E6A20C008F021C009F0D8EC3B
:101430001BF004C020F005C021F0020ED890203629
:101440002136E806FBE1FD0EDB502024E96EFE0E9E
:10145000DB502120EA6EEECF1CF0EECF1DF0EECF78
:101460001EF0EFCF1FF01CC00CF01DC00DF01EC011
:101470000EF01FC00FF018C007F019C008F01AC016
:1014800009F01BC00AF030EC15F007C014F008C0DA
:1014900015F009C016F00AC017F0D9CFE9FFDACF6E
:1014A000EAFFEECF07F0EECF08F0EECF09F0EFCF76
:1014B0000AF014C00CF015C00DF016C00EF017C0E5
:1014C0000FF099EC14F00AC0EDFF09C0EDFF08C061
:1014D000EDFF07C0EFFF750E186E930E196E180E14
:1014E0001A6E3E0E1B6E0A0EE76EFB0EDBCF20F06F
:1014F000FC0EDBCF21F0E7502026000E2122030E48
:10150000205E000E215A0A0E0D6E0E6A20C008F0F1
:1015100021C009F0D8EC1BF004C020F005C021F078
:10152000020ED89020362136E806FBE1FD0EDB5096
:101530002024E96EFE0EDB502120EA6EEECF1CF077
:10154000EECF1DF0EECF1EF0EFCF1FF01CC00CF061
:101550001DC00DF01EC00EF01FC00FF018C007F028
:1015600019C008F01AC009F01BC00AF030EC15F0E1
:1015700007C014F008C015F009C016F00AC017F033
:10158000D9CFE9FFDACFEAFFEECF07F0EECF08F0D0
:10159000EECF09F0EFCF0AF014C00CF015C00DF03B
:1015A00016C00EF017C00FF099EC14F00AC0EDFF52
:1015B00009C0EDFF08C0EDFF07C0EFFF420E186E37
:1015C000600E196E650E1A6E3D0E1B6E0A0EE76EEA
:1015D000FB0EDBCF20F0FC0EDBCF21F0E750202606
:1015E000000E2122040E205E000E215A0A0E0D6EFE
:1015F0000E6A20C008F021C009F0D8EC1BF004C02E
:1016000020F005C021F0020ED89020362136E806E1
:10161000FBE1FD0EDB502024E96EFE0EDB502120A5
:10162000EA6EEECF1CF0EECF1DF0EECF1EF0EFCF46
:101630001FF01CC00CF01DC00DF01EC00EF01FC02E
:101640000FF018C007F019C008F01AC009F01BC04D
:101650000AF030EC15F007C014F008C015F009C00E
:1016600016F00AC017F0D9CFE9FFDACFEAFFEECFC4
:1016700007F0EECF08F0EECF09F0EFCF0AF014C07C
:101680000CF015C00DF016C00EF017C00FF099EC5D
:1016900014F00AC0EDFF09C0EDFF08C0EDFF07C060
:1016A000EFFFB60E186EF30E196EFD0E1A6E3C0E9D
:1016B0001B6E0A0EE76EFB0EDBCF20F0FC0EDBCFBD
:1016C00021F0E7502026000E2122050E205E000E9C
:1016D000215A0A0E0D6E0E6A20C008F021C009F0D2
:1016E000D8EC1BF004C020F005C021F0020ED89009
:1016F00020362136E806FBE1FD0EDB502024E96EA2
:10170000FE0EDB502120EA6EEECF1CF0EECF1DF076
:10171000EECF1EF0EFCF1FF01CC00CF01DC00DF07F
:101720001EC00EF01FC00FF018C007F019C008F05F
:101730001AC009F01BC00AF030EC15F007C014F015
:1017400008C015F009C016F00AC017F0D9CFE9FF9C
:10175000DACFEAFFEECF07F0EECF08F0EECF09F0D8
:10176000EFCF0AF014C00CF015C00DF016C00EF04B
:1017700017C00FF099EC14F00AC0EDFF09C0EDFF9F
:1017800008C0EDFF07C0EFFF040EE15C02E2E16A72
:0C179000E552E16EE552E7CFD9FF1200F0
:04179C000AEC11F052
:1017A000FB0EDBCFF3FFDB06F35000090AE058EC39
:1017B00011F0FA0EC3EC11F0F3E1151CF1E1010E8A
:1017C00001D0000E39EF11F00AEC11F03B0EE124CC
:1017D00002E3E168E652E16E010EDB6A020EDB6AAB
:1017E000F90EDBCFF6FFFA0EDBCFF7FFFB0EDBCFF8
:1017F000F8FF0800F550DF6EDF5002E15DEF10F0FA
:10180000250EDF5C02E050EF10F0030EDB6A040EE1
:10181000DB6A050EDB6A060EDB6A070EDB6A72EC1A
:1018200010F02D0EDF5C0CE02B0EDF5C09E0200ECB
:10183000DF5C06E0230EDF5C03E0300EDF5C1AE1C4
:10184000DF50300A14E0130A0FE0030A0AE00B0A23
:1018500005E0060AE4E1030EDB80E1D7030EDB823C
:10186000DED7030EDB84DBD7030EDB86D8D7030E6F
:10187000DB88D5D72A0EDF5C1BE16EEC10F0BCECE8
:1018800010F010E0030EDB8008680968130EDBCF50
:101890000DF0140EDBCF0EF0D6EC16F0040E06C0E1
:1018A000DBFF03D0130EA5EC10F072EC10F00BD0A0
:1018B000090EDB6A13EC11F003E087EC11F0FAD7A4
:1018C000090EA5EC10F0030EDBB0DB982E0EDF5CEA
:1018D0001BE172EC10F02A0EDF5C0BE16EEC10F0F5
:1018E000BCEC10F003E1130EF7EC10F072EC10F00A
:1018F0000BD0090EDB6A13EC11F003E087EC11F05A
:10190000FAD7090EF7EC10F0680EDF5C07E172EC15
:1019100010F0680EDF5C1DE1030E18D0740EDF5C62
:1019200017E07A0EDF5C14E0480EDF5C06E0540E30
:10193000DF5C03E05A0EDF5C02E1020E07D06C0EA2
:10194000DF5C03E06A0EDF5C04E1010E4AEC11F09B
:10195000C9DBDF506E0A01E17FD31E0A01E192D19B
:10196000200A01E18FD13F0A01E149D11A0A01E1C0
:1019700046D10D0A01E143D1200A01E140D13A0AE2
:1019800001E13DD1200A01E13AD1260A01E135D138
:101990000D0A01E132D11A0A01E1D9D0200A4AE048
:1019A000300A1FE0460A0EE0250A01E083D3D95031
:1019B000F90FE96EFF0EDA20EA6E010EEE5E000E00
:1019C000EE5AEE5A58EC11F0250EE66E95DB03E167
:1019D000151C01E169D354EC11F001E26BD3DB2A51
:1019E00069D3080EDB6A040EDB50010806E2040E20
:1019F000DB041CEC11F0DB508BDB080EDB5009E044
:101A0000030EDB50010B05E172DB01E04DD3080E44
:101A1000DB6A64DBEFCFDFFFCCEC11F003E1151CD8
:101A200001E142D354EC11F001E3DB2A60DB01E178
:101A300041D33AD3070EDB5002080FE198EC11F0C6
:101A4000030E5FEC11F00E0EEECFDBFF0F0EEECFAC
:101A5000DBFF100EEECFDBFF20D0F70EDBCF17F051
:101A6000F80EDBCF18F0020E175E000E185AF70EB4
:101A700017C0DBFFF80E18C0DBFF17C0E9FF18C066
:101A8000EAFF4FEC11F0166A0E0E14C0DBFF0F0ECA
:101A900015C0DBFF100E16C0DBFF0E0EDBCFE6FF1E
:101AA0000F0EDBCFE6FF100EDBCFE6FF56EC1BF090
:101AB000E552E552E552130E07C0DBFF140E08C0D5
:101AC000DBFF060EDB5005E0130E93EC11F001E294
:101AD0006ADBB7EC11F002E2130E37DB7AEC11F09F
:101AE00006E0040E93EC11F002E2050E2EDB030E6D
:101AF000DBB005D0FCDA01E0D7D2080EDB6A090EB4
:101B0000DB6A0E0EDBCFF6FF0F0EDBCFF7FF100EFA
:101B1000DBCFF8FF0800F550DF6EDF5014E0BDECBE
:101B200011F011E2CCEC11F003E1151C01E1BCD283
:101B3000BBDB01E3DB2A090EDB2AD9500E0FE96E6D
:101B4000000ECBDBE7D7D3DA01E1B4D2ADD2C6DAEF
:101B5000110EEECFDBFF120EEDCFDBFF110EDBCF50
:101B6000E6FF120EDBCFE6FF48EC1BF0E552E55234
:101B7000130EF3CFDBFF140EF4CFDBFF060EDB50AA
:101B800004E0130ED0DB01E20EDBB7EC11F002E251
:101B9000130EDBDAAFDB05E0040EC5DB02E2050E57
:101BA000D4DA030EDBB005D0A2DA01E07DD2080E54
:101BB000DB6A090EDB6A110EDBCFE9FF120EDBCF09
:101BC000EAFFEFCFDFFFDF5014E0D7DB12E2E4DB08
:101BD00003E1151C01E168D267DB01E3DB2A090E92
:101BE000DB2A110EDB2ADBCFE9FF120EE8E3DB2A4A
:101BF000E6D77DDA01E15ED257D2030EDB8E070E07
:101C0000DB0410E195DB040E5ADB0A0EEECFDBFF9E
:101C10000B0EEECFDBFF0C0EEECFDBFF0D0EEECF8B
:101C2000DBFF6CD0070EDB5003082CE1030EDBAEAC
:101C30000DD0B2DA020E76DAEFCF14F0156A166A1A
:101C4000176A14AE39D01568166835D0F70EDBCF99
:101C500015F0F80EDBCF16F0020E155E000E165AC8
:101C6000F70E15C0DBFFF80E16C0DBFF15C0E9FF4D
:101C700016C0EAFFEFCF14F00A0E14C0DBFF0B0E04
:101C8000DB6A38D0070EDB50020809E1030EDBAE39
:101C900004D059DB16AE10D00ED055DB0DD0030E9C
:101CA000DBAE12D079DA020E3DDAF9DA166A176A7B
:101CB00015AE02D016681768E2DA0C0E16C0DBFF0C
:101CC0000D0E17C0DBFF1AD0F70EDBCF16F0F80EA3
:101CD000DBCF17F0020E165E000E175AF70E16C075
:101CE000DBFFF80E17C0DBFF16C0E9FF17C0EAFFE5
:101CF000D6DAC5DA0C0EDB6A0D0EDB6A060EDB5097
:101D000005E1010EF36E050EF3CFDBFF150EDB6A66
:101D1000160EDB6AD950370F146E000EDA20156EDE
:101D2000390E14C0DBFF3A0E15C0DBFF380EDB6A3C
:101D3000080EDB6A0A0EAEDADF50780A12E0200ADB
:101D400010E0280A0CE0200A0AE03F0A06E00D0A2B
:101D500002E0200A08E1020E05D0080E03D0080EAA
:101D6000DF26100E97DA030EDBBE02D0DB92DB9487
:101D7000DB50800B24E08ADAD890030EEB50000A87
:101D800008E6000EEE5C000EEE58000EEE58000E57
:101D9000EE5815E213DA0B680C680D680E6810EC4B
:101DA0001BF00A0E02C0DBFF0B0E03C0DBFF0C0EA4
:101DB00004C0DBFF0D0E05C0DBFF2D0E08D0030EA7
:101DC000DBA202D02B0E03D0DBA408D0200EF36ED2
:101DD000170EF3CFDBFF150EDB2A02D0170EDB6ADE
:101DE000050EDB5003E1B7D901E189D0740E146E02
:101DF000380E156E000E166E070EDBCF17F0186A40
:101E0000196A1A6A17C00BF018C00CF019C00DF04F
:101E10001AC00EF0D3D97BEC1BF014500224F36EE1
:101E200015500320F46E16500420F86EF4CFF7FF1F
:101E3000F3CFF6FF0800090EF5CFDBFF580EDF5C8D
:101E40000FE1610EF36E090E7BD90AE3200E146ECA
:101E5000090EDBCFE7FF1450E75E090EE7CFDBFF8B
:101E6000070EDBCF14F0156A166A176A0FDA14C072
:101E70000BF015C00CF016C00DF017C00EF0EECF31
:101E800006F0EECF07F0EECF08F0EFCF09F07BECD5
:101E90001BF009C0EDFF08C0EDFF07C0EDFF06C055
:101EA000EFFF390EDBCFE9FFDB063A0EDBCFEAFFAF
:101EB00001E2DB06090EDBCFEFFF150EDB2A4BD963
:101EC00095E1030EDBA61DD06F0EDF5C06E1C1D9E4
:101ED00018E3150EDB285BDA14D0780EDF5C09E01E
:101EE000580EDF5C06E0620EDF5C03E0420EDF5C52
:101EF00008E1020EF36E160EF3CFDBFF02D0150ED3
:101F0000DB6A030EDB50100B0EE0040EDBCF14F087
:101F1000050EDB50D880145406E2060EDB5003E1B8
:101F2000040EDB5034DA95D90AE2050EDBCFE7FF69
:101F3000150EDB50E75E050EE7CFDBFF02D0050E86
:101F4000DB6A040EDBCF14F0160E45D9D88014548A
:101F500014E2160EDBCFE6FF150EDBCFE6FF040E14
:101F6000DBCFE6FF050EDB50E552E75CE552D8809B
:101F7000E754E552D880E7545FD9030EDB50010BDC
:101F80000BE1080EDB5008E0B2D801E08DD0080E5E
:101F9000DB50BED8080EDB6A170EDB5007E088D98D
:101FA000170EF1D903E1151C01E17ED0160EDB50AE
:101FB00016E07ED9300EE66E9FD802E1151C74E063
:101FC00077D9DFCFE6FFCEEC1AF0E552E552E552C5
:101FD000F4CF15F00001F31C02E1151C65E0050EBD
:101FE000DBCF14F0160EDB50D880145409E2050E36
:101FF000DBCFE7FF160EDB50E75E050EE7CFDBFF1A
:10200000300EE66E050ECBD94FE1390EDB2ADBCF61
:10201000E9FF3A0E01E3DB2ADBCFEAFF090EEFCF3F
:10202000DBFFDB500EE044D9090EADD902E1151CEF
:102030003BE0390EDB2ADBCFE9FF3A0EEDE3DB2A8A
:10204000EBD755D831E1160EDBCFE6FF080EC3D82B
:10205000E552E7245DD82ED0070EDB50030A1CE0C2
:10206000010A14E0030A07E07BD9DBCFEEFF020E82
:10207000DBCFEDFF1FD0F5D8196A17AE02D0186874
:1020800019682CD8BCD819C0EEFF14D0EAD817BEF6
:10209000186824D8B4D80ED063D9DBCFEFFF0AD0AC
:1020A0007BD905E1151C03E1F368F46810D0FCD876
:1020B00001E3DB2A79D9F9EF0BF0010EDBCF14F045
:1020C000020EDBCF15F014C0F3FF15C0F4FF3B0E7A
:1020D000E15C02E2E16AE552E16ECBD029D9020E61
:1020E0005FEF11F061D90800F550DF6E1200200E8D
:1020F000E66E080ECFEF11F0CEEC1AF0E552E55285
:10210000E552F3CF14F0F4CF15F00001F31C1200E8
:10211000146E156AD950010F4DD91450EE26155082
:10212000ED221200185E000E195AF70E18C0DBFFE0
:10213000F80E19C0DBFF18C0E9FF19C0EAFF120052
:10214000DBCFF4FFF350F45C1200DB50E76E040EBB
:10215000E7CFDBFF12000A0EDBCF14F00B0EDBCF54
:1021600015F00C0EDBCF16F00D0EDBCF17F0145070
:102170001510161017101200130EEECFDBFF140E01
:10218000EDCFDBFF130EDBCF14F0140EDBCF15F019
:102190000001800E15141200F70EDBCF18F0F80EB8
:1021A000DBCF19F01200050EDB50E66ED950130F8D
:1021B00001D9E552E750EE6EED6A12000A0EDBCF50
:1021C00006F00B0EDBCF07F00C0EDBCF08F00D0E88
:1021D000DBCF09F01200DBCFE6FF150EDBCFE6FF09
:1021E000050EDB50E552E724E552E7241200DB50F0
:1021F000CED8010EF36E060EF3CFDBFF1200EE50C9
:10220000EFCFEAFFE96E16C0EEFF17C0EEFF18C071
:10221000EEFF1200D9CFE6FFDACFE6FFE1CFD9FF1C
:10222000E2CFDAFF1200DFCFE6FFE66AEEEC1BF04A
:10223000E552E552F3501200E76E080EE7CFDBFFE0
:102240001200EECF14F0EECF15F0EFCF16F0176AB4
:102250001200050EDBCF14F0150EDB50D88014549D
:102260001200010EDBCF16F0020EDBCF17F0186A5A
:102270001200E552E5CFDAFFE7CFD9FF12000A0ED0
:1022800014C0DBFF0B0E15C0DBFF1200D9500A0F84
:10229000DAEF11F0F36E070EF3CFDBFF1200EECF93
:1022A00014F0EFCF15F01200010EDB2A020E12001F
:1022B000FC0EDBCFE6FFFD0EDBCFE6FF1200145E67
:1022C000000E155AF70E14C0DBFFF80E15C0DBFF29
:1022D00014C0E9FF15C0EAFF1200DA20EA6EEF2A07
:1022E000EECFF6FF000EEF22EECFF7FFEF22EECF9C
:1022F000F8FF1200040EDBCFE6FF130EDB50E552B1
:10230000E75C9ADFDB5004DF060EDB501200090E9B
:10231000DB500A0DF350DF24D00FE76E090EE7CF34
:10232000DBFF72EF10F0DB50F36E050EA0EF10F044
:10233000F70EDBCF14F0F80EDBCF15F01200DFCF75
:10234000E6FF7CEF10F028DF030EECDE21EF11F04A
:10235000CEEC0BF0E552E552E552E55200091200D1
:10236000BDDEEE50EFCFEAFFE96E010E1200130E54
:10237000DB50F36E040EA0EF10F0040EDB50F36E92
:10238000090EA0EF10F0DBCFE6FF7CEF10F0E76E58
:10239000050EE7CFDBFF12008BDF9FEF11F0DBCFE5
:1023A000E6FF86DFA8EF11F0D950F90FE96EFF0EB6
:0E23B0006DEF11F0E96E000EDA20EA6E1200F9
:0223BE00D9CF75
:1023C000E6FFE1CFD9FF020EE126DE6ADD6AC282B6
:1023D000C2B2FED7C450DE6EDD6ADECF16F0DDCFAE
:1023E00017F016C017F0166AC3501610DE6E17C02D
:1023F000DDFFD9CFE9FFDACFEAFFFF0EEE1807E1E4
:10240000030EED1804E1FE0EDE6E030EDD6EDECF70
:1024100014F0DDCF15F014C0F3FF15C0F4FF020E69
:10242000E15C02E2E16AE552E16EE552E7CFD9FFF5
:102430001200D9CFE6FFE1CFD9FFFD0EDBCF14F0BC
:10244000FE0EDBCF15F0050ED89015321432E804DD
:10245000FBE114500F011F0BF36EE00E4015F3105B
:10246000406FE552E7CFD9FF1200D9CFE6FFE1CFA9
:10247000D9FFE652DF6A81AE06D0DF2ADF500308BB
:10248000FAE2010E01D0000EE552E552E7CFD9FF86
:102490001200D9CFE6FFE1CFD9FFE652DF6A81AC67
:1024A00006D0DF2ADF500308FAE2010E01D0000E49
:1024B000E552E552E7CFD9FF1200D9CFE6FFE1CFD1
:1024C000D9FF020EE126DE6ADD6AC80EE66EC1ECB7
:1024D0001BF0E5521FEC18F0D9CFE9FFDACFEAFF85
:1024E000EE50ED101AE1E66AE66A27EC18F0E552C4
:1024F000E5525F0E146E370E156E166A14C0E6FFB5
:10250000E66E16C0E6FF7AEC18F0E552E552E552A9
:10251000FD0EDBCFE9FFFE0E68D0D9CFE9FFDACFA1
:10252000EAFF010EEE181CE1ED501AE1E66AE66AD8
:1025300027EC18F0E552E552550E146E370E156E65
:10254000166A14C0E6FFE66E16C0E6FF7AEC18F0D5
:10255000E552E552E552FB0EDBCFE9FFFC0E45D01C
:10256000D9CFE9FFDACFEAFF020EEE181CE1ED50F9
:102570001AE1E66AE66A27EC18F0E552E5524A0EDF
:10258000146E370E156E166A14C0E6FFE66E16C09E
:10259000E6FF7AEC18F0E552E552E552F90EDBCF92
:1025A000E9FFFA0E22D0D9CFE9FFDACFEAFF030E16
:1025B000EE1829E1ED5027E1E66AE66A27EC18F00B
:1025C000E552E5523E0E146E370E156E166A14C0B3
:1025D000E6FFE66E16C0E6FF7AEC18F0E552E5522B
:1025E000E552F70EDBCFE9FFF80EDBCFEAFFEECFC7
:1025F000E6FFEFCFE6FF010EE66E77EC19F0E5524D
:10260000E552E55210D0D9CFE9FFDACFEAFF040E48
:10261000EE1809E1ED5007E11FEC18F0020EE15C45
:1026200001E36DD16AD121DF010822E132DF010827
:102630001FE1DECF14F0DDCF15F0010E1426000EE1
:102640001522050E0D6E0E6A14C008F015C009F0B3
:102650009DEC15F004C014F005C015F004C0DEFFB9
:1026600005C0DDFFC80EE66EC1EC1BF0E55243D19C
:1026700010DF010801E0A1D0000EDFCF08F0010E4D
:10268000DBCF09F0030E081801E1095001E17AD00F
:10269000020E081801E1095052E0010E081801E18C
:1026A00009502AE0085001E026D1095001E023D169
:1026B000FD0EDBCFE9FFFE0EDBCFEAFF010ED88077
:1026C000EE54000EED5418E2FD0EDBCFE9FFFE0ED6
:1026D000DBCFEAFFEECF14F0EFCF15F0020E145E61
:1026E000000E155AFD0EDBCFE9FFFE0EDBCFEAFF31
:1026F00014C0EEFF15C0EDFFFB0EDBCFE9FFFC0EB3
:10270000DBCFEAFF190ED880EE54000EED5417E22D
:10271000FB0EDBCFE9FFFC0EDBCFEAFFEECF14F0C0
:10272000EFCF15F01406000E155AFB0EDBCFE9FFB4
:10273000FC0EDBCFEAFF14C0EEFF15C0EDFFF90E73
:10274000DBCFE9FFFA0EDBCFEAFF140ED880EE54A0
:10275000000EED5417E2F90EDBCFE9FFFA0EDBCFE6
:10276000EAFFEECF14F0EFCF15F01406000E155A65
:10277000F90EDBCFE9FFFA0EDBCFEAFF14C0EEFF64
:1027800015C0EDFFF70EDBCFE9FFF80EDBCFEAFF58
:10279000000ED880EE54000EED5401E3ACD0F70EDD
:1027A000DBCFE9FFF80EDBCFEAFFEECF14F0EFCF7F
:1027B00015F01406000E155A94D057DE010801E0FA
:1027C0009AD0000EDFCF08F0010EDBCF09F0030E28
:1027D000081801E1095001E176D0020E081801E164
:1027E00009504AE0010E081801E109501EE00850A6
:1027F00001E081D0095001E07ED0FD0EDBCFE9FF82
:10280000FE0EDBCFEAFFEECF14F0EFCF15F0020E95
:102810001426000E1522FD0EDBCFE9FFFE0EDBCFE6
:10282000EAFF14C0EEFF15C0EDFFFB0EDBCFE9FFA2
:10283000FC0EDBCFEAFFEECF14F0EFCF15F0C80EA1
:10284000145C000E155818E2FB0EDBCFE9FFFC0EFE
:10285000DBCFEAFFEECF14F0EFCF15F0010E142618
:10286000000E1522FB0EDBCFE9FFFC0EDBCFEAFFEB
:1028700014C0EEFF15C0EDFFF90EDBCFE9FFFA0E35
:10288000DBCFEAFFEECF14F0EFCF15F0960E145C1D
:10289000000E155818E2F90EDBCFE9FFFA0EDBCF78
:1028A000EAFFEECF14F0EFCF15F0010E1426000E64
:1028B0001522F90EDBCFE9FFFA0EDBCFEAFF14C0D9
:1028C000EEFF15C0EDFFF70EDBCFE9FFF80EDBCF13
:1028D000EAFFEECF14F0EFCF15F0010E1426000E34
:1028E0001522F70EDBCFE9FFF80EDBCFEAFF14C0AD
:1028F000EEFF15C0EDFF190EE9D5E16AE552E16E74
:08290000E552E7CFD9FF1200F8
:08290800019E08D0019E09AEFA
:1029100005D0086C091EE86A0922018E09C003F07F
:1029200008C002F0136A126A8E0E046E056A6CEF1C
:1029300016F00F7E016AA8EC16F0C0EC16F001B696
:1029400050EF16F001A20AD001AA03D001BE50EF49
:1029500016F001A45CEF16F059EF16F001AA05D0AD
:1029600001AC5CEF16F059EF16F001A00AD001A8F7
:1029700008D001BE04D001A402D065EF16F069EFC3
:1029800016F0126A056A0F500A5C116E10E307C058
:1029900013F008C002F009C003F00AC010F00CC028
:1029A00007F00DC008F00EC009F0013A09D00CC0C4
:1029B00013F00DC002F00EC003F00FC010F0116C48
:1029C000019E01BC018E10C004F001B098EF16F01A
:1029D0001A0E116098EF16F0046A0A6A01A408D072
:1029E000076C081E091E0A1EE86A082209220A222C
:1029F00001AC08D0136C021E031E041EE86A0222FA
:102A000003220422066A115207E00A34093208320E
:102A100007320632112EF9D707501326085002222A
:102A2000095003220A50042206C012F0019E04AE8F
:102A30000BD0126C131E021E031E041EE86A132222
:102A4000022203220422018E04A006D0D880033281
:102A5000023213321232102A10C004F06CEF16F05A
:102A6000016AA8EC16F0C0EC16F001B650EF16F0B3
:102A700001A205D001B850EF16F057EF16F001AAE9
:102A800005D001B050EF16F057EF16F001B002D0AC
:102A900001A802D063EF16F0056A0F500A24046EF5
:102AA000E86A05227E0E045EE86A055A126A136A15
:102AB000026A036A0E500902F4CF03F0F3CF02F06A
:102AC0000D500902F3501326F4500222000E032287
:102AD0000E500802F3501326F4500222000E032277
:102AE0000C500902F3501226F4501322000E022259
:102AF00003220D500802F3501226F4501322000E48
:102B0000022203220E500702F3501226F450132221
:102B1000000E022203220C500802F4501226000E6E
:102B20001322022203220D500702F4501226000E37
:102B30001322022203226CEF16F0006A0EAEA6EFFB
:102B400015F00D6C0E1EE86A0E22001E09AEAEEFE7
:102B500015F0086C091EE86A0922001ED8EC1BF06B
:102B600009BEBEEF15F000AE000C086C091EE86A45
:102B70000922046C051EE86A0522000C00BEB5EFB0
:102B800015F00188FF0C016AA8EC16F001B6CDEF34
:102B900015F001A20ED001B405D07F0E096EFF0E14
:102BA000086E1FD0800E096E086A1BD0096A086A79
:102BB00018D001B0FBD78F0E0A60EDD77E0E0A64E5
:102BC000F5D78E0E0A5C05E0D890093208320A2A41
:102BD000F8D701A406D0086C091EE86A092209AEDC
:102BE000E5D71200FBEC15F001B6000C01B0000CAB
:102BF00001A4000C010C016AA8EC16F0C0EC16F060
:102C000001B6120001AE08D001A004D001A802D084
:102C100001801200019012000F500A5C0BE10E506F
:102C2000095C08E10D50085C05E10C50075C02E10D
:102C300001801200D8A002D0018E10D00A500FC01F
:102C40000AF00F6E09500EC009F00E6E08500DC04C
:102C500008F00D6E07500CC007F00C6E0F500A5CA8
:102C600010E0FF0F09E0019001B403D001AE018430
:102C7000120001AE019412000F2AD8900E320D32CC
:102C80000C320C50075E0D50085A0E50095A09BEFE
:102C9000EAD7D8900736083609360A2EF8D7C8D7AB
:102CA0007F0E0A6EFF0E096E086E076E12007F0E11
:102CB00001BEFF0E0A6E02D07F0E0A6E800E096EF4
:102CC000086A076AF3D701AE04D0800E0A6E096A5B
:102CD000F7D70A6A096AF4D70350021013101210CA
:102CE000F8E005BEF0D703BE0CD004500510EBE0B1
:102CF000D89012361336023603360406D8A00506DD
:102D0000F2D70550D4E10428D2E012AE11D07F0EE4
:102D1000121402E113A00CD0132AE86A0222032243
:102D200007E3D880033202321332042A0428BFE0BA
:102D30000450C9E013C007F002C008F00334096E64
:102D400004300A6E09320A9E01BE0A8E56EF16F052
:102D500009360A3602E30184017E06E101800A6A2F
:102D6000096A086A076A12000A2803E0D880093253
:102D70001200D890093202E101821200018612008D
:102D80000E360F3602E3018C017E06E101880F6AE0
:102D90000E6A0D6A0C6A12000F2803E0D8800E320A
:102DA0001200D8900E32EAE1018A120009C013F035
:102DB00008C012F008500D02F4CF07F0F3CF06F070
:102DC00009500E02F4CF09F0F3CF08F00D02F350D2
:102DD0000726F4500822E86A092212500E02F35026
:102DE0000726F4500822E86A09220EAEFCEF16F01E
:102DF0001250085E1350095A13AE000C0D50085EB5
:062E00000E50095A000CFF
:0A2E0600D9CFE6FFE1CFD9FF020E9D
:102E1000E12695809582958495868C8C0000000033
:102E20008350DF6E8C9CDF50100D010EF3CFDBFF63
:102E30008C8C000000008350DF6E8C9C000EDB98B1
:102E4000DB9ADB9CDB9E010EDBCFE7FFDF50E71256
:102E5000010EE7CFDBFF9590959295949596010E24
:102E6000DB5000D0146E020EE15C02E2E16AE55232
:102E7000E16E1450E552E7CFD9FF1200D9CFE6FF3B
:102E8000E1CFD9FF030EE126010EDB6A020EDB6AF9
:102E90008C988C8AB8DFDF6ED950010FE96EDACFDB
:102EA000EAFFE80EEE1802E1030EED1804E18A8253
:102EB0008A848A86FCD7010EDB2A020E01E3DB2A14
:102EC000DFBEE8D78C9A0400010EDB6A020EDB6AD3
:102ED000030EE15C02E2E16AE552E16EE552E7CF02
:102EE000D9FF1200D9CFE6FFE1CFD9FFE652FE0E9F
:102EF000DB5002E08C9801D08C888C9A8C8C8C965C
:102F00008C948C928C90000000008C50DF6E000E30
:102F1000DB90DB92DB94DB96FD0EDB500F0BDF10BA
:102F20008C6E000000008C9CE552E552E7CFD9FF83
:102F30001200D9CFE6FFE1CFD9FFFD0EDB380F0B32
:102F4000E66EFE0EDBCFE6FFCDDFE552E552FD0E6D
:102F5000DBCFE6FFFE0EDBCFE6FFC4DFE552E55236
:102F6000E552E7CFD9FF1200959E959C959A959CC6
:102F700095909592959495968C9E8C8E8C988C9A23
:102F80008C9C8C8C7BDF020EE66E010EE66EAADF57
:102F9000E552E55273DF020EE66E010EE66EA2DF29
:102FA000E552E5526BDF080EE66E010EE66E9ADF23
:102FB000E552E55263DFE66A010EE66E93DFE55205
:102FC000E5525CDF0C0EE66E010EE66E8BDFE5521D
:102FD000E55254DFE66A010EE66E84DFE552E55203
:102FE0004DDF010EE66EE66E7DDFE552E55246DF0F
:102FF000E66A010EE66E76DFE552E5523FDF020E2D
:10300000E66E010EE66E6EDFE552E55237DF040E26
:10301000E66E010EE66E66DFE552E5522FDF0E0E1C
:10302000E66E010EE66E5EDFE552E55227DF07D859
:10303000E66AE66A0CD8E552E5528C8E1200010E63
:10304000E66EE66E76DFE552E5523EEF17F0D9CF39
:10305000E6FFE1CFD9FFFD0EDB50010815E3FE0EC0
:10306000DB500F0811E3FD0EDB0404E1FE0EDB5024
:10307000C00903D0FE0EDB508009E66E010EE66E3D
:1030800058DFE552E552FADEE552E7CFD9FF1200EC
:10309000D9CFE6FFE1CFD9FFFE0EDBCFE6FFE66A30
:1030A00048DFE552E552EADEE552E7CFD9FF1200EC
:1030B000D9CFE6FFE1CFD9FF0A0E146E0E6EFE0ED9
:1030C000DBCF09F02CEC1CF00950300FE66EE0DF8E
:1030D000E5520A0E146E0E6EFE0EDBCF09F02CECDC
:1030E0001CF00550300FE66ED3DFE552E552E7CF16
:1030F000D9FF1200D9CFE6FFE1CFD9FFE652DF6A50
:10310000DFCF14F0156A166AD950FC0FE96EFF0E76
:10311000DA20EA6EEE501424F36EEE501520F46EB1
:10312000EE501620F86EF4CFF7FFF3CFF6FF08004D
:10313000F5501EE0DF50DF2A146E156A166AD9506A
:10314000FC0FE96EFF0EDA20EA6EEE501424F36EE7
:10315000EE501520F46EEE501620F86EF4CFF7FF07
:10316000F3CFF6FF0800F550E66E92DFE552C8D7C0
:0A317000E552E552E7CFD9FF120047
:06317A00D9CFE6FFE1CF12
:10318000D9FFFD0EDBCFE6FFE66A27EC18F0E5522B
:10319000E552FB0EDBCF14F0FC0EDBCF15F0310E49
:1031A0001502F3CF15F01402F3CF14F0F4501526E6
:1031B0000A0E0D6E0E6AF3CF08F015C009F0D8ECB8
:1031C0001BF008C014F009C015F008C0E6FF09C0E4
:1031D000E6FF7C0E166E370E176E186A16C0E6FFF5
:1031E000E66E18C0E6FFB40EE66E010EE66E29EC40
:1031F0001AF0196E070EE15E1950B4C1E6FF48ECF3
:1032000018F0E5522E0EE66E48EC18F0E552B5C106
:10321000E6FF48EC18F0E552B6C1E6FF48EC18F0BE
:10322000E552B7C1E6FF48EC18F0E552560EE66EDF
:1032300048EC18F0E552E552E7CFD9FF1200D9CF9C
:10324000E6FFE1CFD9FFFD0EDBCFE6FFE66A27EC14
:1032500018F0E552E552FC0EDB0404E17A0E146E20
:10326000370E03D0780E146E370E156E166A14C022
:10327000E6FFE66E16C0E6FF7AEC18F0E552E5527E
:10328000E552E552E7CFD9FF1200D9CFE6FFE1CFF3
:10329000D9FFFD0EDBCFE6FFE66A27EC18F0E5521A
:1032A000E552FC0EDBCFE6FFE66A730E146E370EB6
:1032B000156E166A14C0E6FFE66E16C0E6FFB40E81
:1032C000E66E010EE66E29EC1AF0176E070EE15E4F
:1032D0001750B4C1E6FF48EC18F0E552B5C1E6FF5F
:1032E00048EC18F0E552E552E7CFD9FF1200D9CFEC
:1032F000E6FFE1CFD9FFFD0EDBCFE6FFE66A27EC64
:1033000018F0E552E552FB0EDBCFE6FFFC0EDBCFFB
:10331000E6FF6E0E146E370E156E166A14C0E6FFC9
:10332000E66E16C0E6FFB40EE66E010EE66E29EC00
:103330001AF0176E070EE15E1750B4C1E6FF48ECB5
:1033400018F0E552B5C1E6FF48EC18F0E552B6C1F9
:10335000E6FF48EC18F0E552B7C1E6FF48EC18F07C
:10336000E552B8C1E6FF48EC18F0E552B9C1E6FFF6
:1033700048EC18F0E552E552E7CFD9FF1200D9CF5B
:10338000E6FFE1CFD9FFFD0EDBCFE6FFE66A27ECD3
:1033900018F0E552E552D950FB0FE96EFF0EDA2026
:1033A000EA6E010EEE1806E1ED5004E17A0E146E9D
:1033B000370E03D0780E146E370E156E166A14C0D1
:1033C000E6FFE66E16C0E6FF7AEC18F0E552E5522D
:1033D000E552D950F90FE96EFF0EDA20EA6E010EC0
:1033E000EE1806E1ED5004E17A0E146E370E03D0AC
:1033F000780E146E370E156E166A14C0E6FFE66E70
:1034000016C0E6FF7AEC18F0E552E552E552D950C5
:10341000F70FE96EFF0EDA20EA6E010EEE1806E1F4
:10342000ED5004E17A0E146E370E03D0780E146E50
:10343000370E156E166A14C0E6FFE66E16C0E6FF7C
:103440007AEC18F0E552E552E552E552E7CFD9FFA4
:02345000120068
:0E345200D9CFE6FFDACFE6FFE1CFD9FFE2CF18
:10346000DAFFE652E652E652E652D950F90F146EF0
:10347000FF0EDA20156E020E14C0DBFF030E15C01E
:10348000DBFF020EDBCFE6FF030EDBCFE6FFF90E1C
:10349000DBCFE6FFFA0EDBCFE6FFFB0EDBCFE6FF6E
:1034A000D950FC0FE66EFF0EDA20E66EE4EC0BF06E
:1034B000146E070EE15C02E2E16AE552E16E14501F
:1034C000F3CFDEFFF4CFDDFFFC0EDBCFE9FFFD0E17
:1034D000DBCFEAFFEF6ADECF14F0DDCF15F014C0CA
:1034E000F3FF15C0F4FF040EE15C02E2E16AE5526D
:0E34F000E16EE552E5CFDAFFE7CFD9FF12001B
:0234FE00EC0ED2
:10350000F66E070EF76E000EF86E0F010900F5500B
:10351000326F0900F550336F03E1326701D03DD0BF
:103520000900F5502D6F0900F5502E6F0900F55078
:103530002F6F09000900F550E96E0900F550EA6E99
:10354000090009000900F550306F0900F550316F8E
:1035500009000900F6CF34FFF7CF35FFF8CF36FF6B
:103560002DCFF6FF2ECFF7FF2FCFF8FF0F013053EF
:1035700002E1315307E00900F550EE6E3007F8E242
:103580003107F9D734CFF6FF35CFF7FF36CFF8FF45
:0C3590000F013207000E335BBFD71200A2
:04359C00D9CFE6FF9E
:1035A000DACFE6FFE1CFD9FFE2CFDAFFFB0EDBCFC8
:1035B00014F0FC0EDBCF15F00001800E15141AE19B
:1035C000FB0EDBCFE9FFFC0EDBCFEAFFEECFF3FF14
:1035D000EDCFF4FFEE2A000EEF22F3CFE9FFF4CF98
:1035E000EAFFFD0EDBCFEFFFEF50156AF36E15C05B
:1035F000F4FF10D0FB0EDB50FE0806E1FD0EDBCF22
:10360000E6FF1EEC1CF005D0FD0EDBCFE6FF03EC61
:1036100000F0E552E552E5CFDAFFE7CFD9FF12001F
:1036200006500B02F3CF02F0F4CF03F00C02F3507C
:103630000326000EF420046E06500D02F3500426FB
:10364000000EF420056E06500E02F35005260750BA
:103650000B02F3500326F4500422000E05220750FB
:103660000C02F3500426F450052207500D02F350CB
:10367000052608500B02F3500426F450052208508A
:103680000C02F350052609500B02F35005261200D8
:10369000FE0EE3CFE9FFFF0EE3CFEAFFF36AF46A21
:1036A000EE5203E0F34AF42AFBD71200FF0EE3CFF9
:1036B000F8FFE552FF0EE3CFF7FFE552FF0EE3CF31
:1036C000F6FFE552E66AE66AE66A0900F55209E0A5
:1036D000FD0EE32A05E1FE0EE32A02E1FF0EE32AD6
:1036E000F4D7FD0EE3CF07F0FE0EE3CF08F0FF0E98
:0636F000E3CF09F0120017
:0A36F600056A046A036A026A200EE6
:10370000E76ED89006360736083609360236033695
:10371000043605360B50025C0C5003580D5004580B
:103720000E50055809E30B50025E0C50035A0D5021
:0E373000045A0E50055A062AE72EE4D712005E
:02373E00496DD3
:103740002E204C656E6774683A00496D2E204465E2
:103750006C61793A0051542044656C61793A0045B6
:103760004347205468726573686F6C643A00253073
:103770003664002530326400300031002530346476
:013780000048
:0E378200FF0EE350296EEF0E01D0F30EE76E3E
:10379000E72EC8EF1BF00C0E286EE76AE72ECEEF7F
:1037A0001BF0282ECDEF1BF0292EC6EF1BF01200C8
:1037B000056A046A100EE76ED8900836093604369A
:1037C00005360D50045C0E50055805E30D50045E9F
:0C37D0000E50055A082AE72EF0D7120010
:0437DC00F36AF46A2E
:1037E000FF0EE124E96EFF0EE220EA6EED6607D0DF
:1037F0002F0EEF6404D03A0EEF6001D0F32A1200CE
:10380000380EF36E00EE00F00F0E01D81200EA60E1
:1038100002D0EE6AFCD7F350E9601200EE6AFCD7E2
:103820001EEE00F02EEE00F0F86A019C7FEC1AF01C
:0C38300043EC1CF051EC00F0FBD7120040
:04383C00FF0EE35048
:10384000ACBA04D0AF6AAB8EAC8A949CACA2FED763
:08385000AD6EF36EF46A120084
:08385800056A080EE76ED89026
:10386000093605360E50055C02E3056E092AE72E7F
:04387000F7D7120074
:0C38740030313233343536373839616278
:053880006364656600B1
:0238860012002E
:08388800000000000000000038
:103890000028000A0000008813000000000000005B
:0538A000000000000023
:020000040030CA
:0100010039C5
:010003003CC0
:010006008574
:00000001FF
