:020000040000FA
:06000000F2EF02F0120015
:020006001200E6
:0800080007EF00F01200DACF4F
:10001000E4FFE2CFDAFFE9CFE4FFEACFE4FFF6CF77
:10002000E4FFF7CFE4FFF5CFE4FFF3CFE4FFF4CF35
:10003000E4FFFACFE4FF00EE00F0100EE80403E363
:10004000EECFE4FFFBD700EE10F0030EE80403E36D
:10005000EECFE4FFFBD7E6525ED8E55200EE12F099
:10006000030EE80403E3E5CFEDFFFBD700EE0FF04E
:10007000100EE80403E3E5CFEDFFFBD7E5CFFAFF71
:10008000E5CFF4FFE5CFF3FFE5CFF5FFE5CFF7FFD1
:10009000E5CFF6FFE5CFEAFFE5CFE9FFE5CFDAFFF1
:1000A0001100D9CFE6FFE1CFD9FF040EE1260AD82F
:1000B000FAEC01F0A7D870D80A0EE66ECBEC02F08D
:1000C000E552F8D7560ED36E0F013991928893807E
:1000D0003B6B956ACCEC01F0800ECF6ECE6A890E38
:1000E000CD6ECC6AD08E9E909D80F28E926A0F016A
:1000F00038819280C70EC0140809C06EF80EC01473
:100100000009C06EC08EC28096928D820F010E6B68
:10011000106B0F6B12009EA007D027D85CD8800E02
:10012000CF6ECE6A9E90F292120087D880B802D02D
:10013000DF2AFCD7DF50050802E2010E01D0000ED5
:10014000E552E552E7CFD9FF120077D881B002D04F
:10015000DF2AFCD7DF50050802E2010E01D0000EB5
:10016000E552E552E7CFD9FF1200C282C2B2FED7F4
:10017000C4500F01116E106AC35010100C6F11C0E3
:100180000DFFFF0E0C1907E1030E0D1904E1FE0E21
:100190000C6F030E0D6F1200010EE66EE66AFFECA7
:1001A00001F0E552E552F00E0F010C15106E116AC8
:1001B000040ED89011321032E804FBE11050E66EC4
:1001C0001EEC02F0E5520F0E0F010C15E66E1EEC50
:1001D00002F0E55212000F010E2B3C0E0E5D02E103
:1001E0000E6B01D812000F010F2B3C0E0F5D02E1C8
:1001F0000F6B01D812000F01102B180E105D01E1DA
:10020000106B1200E66AE66AFFEC01F0E552E55277
:1002100010CFE6FF09D80FCFE6FF06D80ECFE6FFD6
:100220001EEC02F0E55212001EEC02F0E5523A0E0E
:10023000E66E17EC02F0E5521200D9CFE6FFE1CFEF
:08024000D9FFE652DF6A12004B
:0802480001001C0600000A0F72
:06025000000004000000A4
:0A025600D9CFE6FFE1CFD9FF020E79
:10026000E12695809582958495868C8C000000000F
:100270008350DF6E8C9CDF50100D010EF3CFDBFF3F
:100280008C8C000000008350DF6E8C9C000EDB988D
:10029000DB9ADB9CDB9E010EDBCFE7FFDF50E71232
:1002A000010EE7CFDBFF9590959295949596010E00
:1002B000DB5000D0106E020EE15C02E2E16AE55212
:1002C000E16E1050E552E7CFD9FF1200D9CFE6FF1B
:1002D000E1CFD9FF030EE126010EDB6A020EDB6AD5
:1002E0008C988C8AB8DFDF6ED950010FE96EDACFB7
:1002F000EAFFE80EEE1802E1030EED1804E18A822F
:100300008A848A86FCD7010EDB2A020E01E3DB2AEF
:10031000DFBEE8D78C9A0400010EDB6A020EDB6AAE
:10032000030EE15C02E2E16AE552E16EE552E7CFDD
:10033000D9FF1200D9CFE6FFE1CFD9FFE652FE0E7A
:10034000DB5002E08C9801D08C888C9A8C8C8C9637
:100350008C948C928C90000000008C50DF6E000E0C
:10036000DB90DB92DB94DB96FD0EDB500F0BDF1096
:100370008C6E000000008C9CE552E552E7CFD9FF5F
:10038000120099D8FD0EDB380F0BE66EA1D8FD0EDA
:10039000DBCFE6FF9DD88BD0959E959C959A959C3A
:1003A00095909592959495968C9E8C8E8C988C9A1F
:1003B0008C9C8C8C8BDF020E96D8020E94D8080E83
:1003C00092D8E66A54D80C0E8ED8E66A50D8010E40
:1003D000E66E8CD8E66A4BD8020E85D8040E83D818
:1003E0000E0E81D807D8E66AE66A09D8E552E552CA
:1003F0008C8E1200010EE66EE66E52EF02F05BD8B4
:10040000FD0EDB50010812E3FE0EDB500F080EE379
:10041000FD0EDB0404E1FE0EDB50C00903D0FE0E2E
:10042000DB508009E66E010EE66E3CD840D043D822
:10043000FE0EDBCFE6FFE66A35D839D03CD840D88F
:100440000750300F4CD83CD80350300F48D82FD02D
:1004500032D8E652DF6ADFCF10F00CD806E0DF506A
:10046000DF2A106E07D83BD8F6D7E55220D0010E10
:1004700076EF02F0116A126AD950FC0FE96EFF0E96
:10048000DA20EA6EEE501024F36EEE501120F46E76
:10049000EE501220F86EF4CFF7FFF3CFF6FF08000E
:1004A000F55012006EDFE552E55266EF01F0E552BD
:1004B000E7CFD9FF1200D9CFE6FFE1CFD9FF120075
:1004C0000A0E106E0C6EFE0EDBCF07F000EF03F08D
:1004D000FE0EDBCFE6FF2EDFE552E5521200E66EA0
:1004E000A6DFE5521200E66E37EF02F0E66E22DF7D
:0804F000E552E55266EF01F050
:0804F800480EF66E020EF76ECD
:10050000000EF86E0F010900F550056F0900F55057
:10051000066F03E1056701D03DD00900F550006F7B
:100520000900F550016F0900F550026F090009003C
:10053000F550E96E0900F550EA6E0900090009005E
:10054000F550036F0900F550046F09000900F6CF5C
:1005500007FFF7CF08FFF8CF09FF00CFF6FF01CF65
:10056000F7FF02CFF8FF0F01035302E1045307E046
:100570000900F550EE6E0307F8E20407F9D707CF3C
:10058000F6FF08CFF7FF09CFF8FF0F010507000EB0
:06059000065BBFD712005C
:0A059600FF0EE350146EEF0E01D0CB
:1005A000F30EE76EE72ED2EF02F00C0E136EE76A41
:1005B000E72ED8EF02F0132ED7EF02F0142ED0EF73
:0405C00002F0120033
:0C05C400380EF36E00EE00F00F0E01D8B0
:1005D0001200EA6002D0EE6AFCD7F350E960120024
:0405E000EE6AFCD7EC
:0C05E4001EEE00F02EEE00F0F86A0F9CF6
:1005F0007CEC02F003EC00F051EC00F0FBD71200B1
:10060000036A080EE76ED890073603360C50035C79
:0C06100002E3036E072AE72EF7D7120062
:04061C0000000000DA
:020000040030CA
:0100010028D6
:010003003CC0
:010006008574
:00000001FF
