:020000040000FA
:06000000A9EF19F0120047
:020006001200E6
:0800080007EF00F01200DACF4F
:10001000E4FFE2CFDAFFE9CFE4FFEACFE4FFF6CF77
:10002000E4FFF7CFE4FFF5CFE4FFF3CFE4FFF4CF35
:10003000E4FFFACFE4FF00EE2AF0140EE80403E335
:10004000EECFE4FFFBD700EE00F02A0EE80403E356
:10005000EECFE4FFFBD7E65298D8E55200EE29F048
:100060002A0EE80403E3E5CFEDFFFBD700EE3DF0F9
:10007000140EE80403E3E5CFEDFFFBD7E5CFFAFF6D
:10008000E5CFF4FFE5CFF3FFE5CFF5FFE5CFF7FFD1
:10009000E5CFF6FFE5CFEAFFE5CFE9FFE5CFDAFFF1
:1000A000110009D86AD8FFEC16F00A0EE66E5AEC79
:1000B00019F0E552FAD7760ED36E9B8C9B8ED298B0
:1000C0000F013B6B956A94EC16F0800ECF6ECE6AF2
:1000D000490ECD6ECC6AD08E9E909D800F013881E6
:1000E0009280C70EC0140009C06EF80EC01400093B
:1000F000C06EC08EC280830EC2140009C26E3885E5
:10010000418F418B96908D9096928D92928A389BDA
:10011000808A94963A9794883A99949A3A9B9E96B4
:100120009D96F00EC6140009C66EC68A9388938AFF
:10013000938C938E6288628A628C628EF2860F0143
:100140001F6B206B620EE66E000EE66EECEC01F0AB
:10015000E552E552960EE66E000EE66EECEC01F00E
:10016000E552E552CA0EE66E000EE66EECEC01F0CA
:10017000E552E552F28EF28C1200B36AB26A490E71
:10018000B16EB46AA192A08212009EA0DED0F29E4F
:100190009E9042EC18F0F3CF26FFF4CF27FFF3CF69
:1001A00032F0F4CF33F0D2EC10F031C000F032C0B6
:1001B00001F033C002F034C003F031C0E6FF32C0BA
:1001C000E6FF33C0E6FF34C0E6FF620EE66E000EC7
:1001D000E66EB7EC03F0046E060EE15E04508EC0CE
:1001E00031F08FC032F090C033F091C034F064EC45
:1001F00012F032C004F033C005F032C0E6FF33C065
:10020000E6FF620EE66E000EE66E87EC07F0E55242
:10021000E552E552E55230C000F031C001F032C085
:1002200002F033C003F030C0E6FF31C0E6FF32C059
:10023000E6FF33C0E6FF960EE66E000EE66EB7EC04
:1002400003F0066E060EE15E0650E66A400EE66EAC
:100250009C0EE66E450EE66E960EE66E000EE66E9F
:1002600056EC09F0006E060EE15E0050000965E0F4
:10027000CA0EE66E000EE66E1DEC05F0E552E55284
:1002800030C003F031C004F032C005F033C006F0D6
:1002900030C031F004C032F005C033F006C034F095
:1002A00064EC12F00F0132501F5D016E3350205983
:1002B000026E01C0E6FFE66ECA0EE66E000EE66E46
:1002C00037EC0AF0E552E552E552E7CF02F0E5528D
:1002D000E7CF01F0F3CF07F0F4CF08F00150F35C63
:1002E0000250F4582AE20F01000ED8801F55000E6C
:1002F000205523E21FCF32F020CF33F0D2EC10F0A4
:1003000031C000F032C001F033C002F034C003F05D
:1003100031C0E6FF32C0E6FF33C0E6FF34C0E6FF7F
:10032000CA0EE66E000EE66EB7EC03F0046E060E23
:10033000E15E04500F012C6B2D6B0F011F2B000E83
:100340002023800ECF6ECE6AF28EF2A01FD0F29ED6
:100350008D7281A807D00F01230502E1236B02D023
:10036000010E236F81AA07D00F01240502E1246B3F
:1003700002D0010E246F81AC07D00F01250502E1E8
:10038000256B02D0010E256FF290F28EA1A21CD037
:10039000F29E0F0128512C5D29512D590DE3285152
:1003A0002A25006E29512B21016E2C51005C2D5104
:1003B000015802E38D8001D08D902C2B000E2D234F
:0A03C000B36AB26AA192F28E120035
:0603CA000100CC3300002D
:0803D0001F0F00000F000000E8
:0803D800D9CFE6FFE1CFD9FF08
:1003E0000F010C6B0D6B0D3504E20C510C08000E67
:1003F0000D551AE30CCF00F00DCF01F0D890003668
:100400000136D89000360136FD0EDB500024E96E2F
:10041000FE0EDB500120EA6EEE6AEE6AEE6AEE6ACC
:100420000C2B000E0D23DFD7E552E7CFD9FF1200CA
:10043000D9CFE6FFE1CFD9FF300EE76EFD0EDBCF5F
:10044000E9FFFE0EDBCFEAFFE750E926000EEA22C5
:10045000EECF02F0EECF03F0EECF04F0EFCF05F0D9
:1004600002C031F003C032F004C033F005C034F0F4
:1004700064EC12F033C001F00A0E321804E10150AE
:1004800002E1010E01D0000EE552E7CFD9FF1200C4
:10049000D9CFE6FFE1CFD9FF300EE76EFD0EDBCFFF
:1004A000E9FFFE0EDBCFEAFFE750E926000EEA2265
:1004B000EECF02F0EECF03F0EECF04F0EFCF05F079
:1004C00002C031F003C032F004C033F005C034F094
:1004D00064EC12F03250331002E1010E01D0000E34
:1004E000E552E7CFD9FF1200D9CFE6FFE1CFD9FF20
:1004F000300EE76EFD0EDBCFE9FFFE0EDBCFEAFF2D
:10050000E750E926000EEA22EECF02F0EECF03F02C
:10051000EECF04F0EFCF05F002C031F003C032F0AF
:1005200004C033F005C034F064EC12F032C000F0C7
:1005300033C001F0325033100DE1006A016A026AE3
:10054000036A00C030F001C031F002C032F003C0D5
:1005500033F009D1280EE76EFD0EDBCFE9FFFE0E6A
:10056000DBCFEAFFE750E926000EEA22EECF02F0E9
:10057000EECF03F0EECF04F0EFCF05F002C031F084
:1005800003C032F004C033F005C034F064EC12F064
:1005900032C000F033C001F0D89000360136D89058
:1005A00000360136FD0EDB500024E96EFE0EDB50F6
:1005B0000120EA6EEECF00FFEECF01FFEECF02FF8B
:1005C000EFCF03FF300EE76EFD0EDBCFE9FFFE0E2F
:1005D000DBCFEAFFE750E926000EEA22EECF04F077
:1005E000EECF05F0EECF06F0EFCF07F0366A376AB0
:1005F000800E386E3F0E396E04C031F005C032F007
:1006000006C033F007C034F0E7EC10F031C000F062
:1006100032C001F033C002F034C003F0300EE76E98
:10062000FD0EDBCFE9FFFE0EDBCFEAFFE750E92648
:10063000000EEA2231C0EEFF01C0EEFF02C0EEFF65
:1006400003C0EEFF300EE76EFD0EDBCFE9FFFE0EBE
:10065000DBCFEAFFE750E926000EEA22EECF00F0FA
:10066000EECF01F0EECF02F0EFCF03F0366A376A3B
:10067000386A396A00C031F001C032F002C033F08C
:1006800003C034F09CEC12F0010A10E1300EE76E6A
:10069000FD0EDBCFE9FFFE0EDBCFEAFFE750E926D8
:1006A000000EEA22EE6AEE6AEE6AEE6A280EE76E45
:1006B000FD0EDBCFE9FFFE0EDBCFEAFFE750E926B8
:1006C000000EEA22EECF06F0EECF07F0EECF08F0F4
:1006D000EFCF09F0366A376A800E386E3F0E396EFA
:1006E00006C031F007C032F008C033F009C034F062
:1006F000E8EC10F064EC12F032C004F033C005F006
:100700000A0E376E386A3EEC12F02EC004F02FC08D
:1007100005F02EC032F02FC033F0D4EC10F031C011
:1007200000F032C001F033C002F034C003F0280EF4
:10073000E76EFD0EDBCFE9FFFE0EDBCFEAFFE750F1
:10074000E926000EEA2231C0EEFF01C0EEFF02C032
:10075000EEFF03C0EEFF00CF30F001CF31F002CF4B
:1007600032F003CF33F0E552E7CFD9FF1200D9CFF3
:10077000E6FFE1CFD9FF2C0EE76EFD0EDBCFE9FFE0
:10078000FE0EDBCFEAFFE750E926000EEA22EECFAD
:1007900002F0EECF03F0EECF04F0EFCF05F002C091
:1007A00031F003C032F004C033F005C034F064EC23
:1007B00012F032C000F033C001F0D890003601369C
:1007C000D89000360136FD0EDB500024E96EFE0E97
:1007D000DB500120EA6EF90EDBCFEEFFFA0EDBCF25
:1007E000EEFFFB0EDBCFEEFFFC0EDBCFEEFF300E9D
:1007F000E76EFD0EDBCFE9FFFE0EDBCFEAFFE75031
:10080000E926000EEA22EECF04F0EECF05F0EECF9F
:1008100006F0EFCF07F0366A376A800E386E3F0E6B
:10082000396E04C031F005C032F006C033F007C0A5
:1008300034F0E8EC10F031C000F032C001F033C009
:1008400002F034C003F0300EE76EFD0EDBCFE9FF9F
:10085000FE0EDBCFEAFFE750E926000EEA2231C0A8
:10086000EEFF01C0EEFF02C0EEFF03C0EEFF300E50
:10087000E76EFD0EDBCFE9FFFE0EDBCFEAFFE750B0
:10088000E926000EEA22EECF00F0EECF01F0EECF27
:1008900002F0EFCF03F0366A376A200E386E410E51
:1008A000396E00C031F001C032F002C033F003C035
:1008B00034F093EC12F0010A67E1280EE76EFD0EAA
:1008C000DBCFE9FFFE0EDBCFEAFFE750E926000EA3
:1008D000EA22EECF06F0EECF07F0EECF08F0EFCF32
:1008E00009F0366A376A800E386E3F0E396E06C0E0
:1008F00031F007C032F008C033F009C034F0E8EC42
:1009000010F064EC12F032C004F033C005F00A0EAF
:10091000376E386A3EEC12F02EC004F02FC005F09E
:100920002EC032F02FC033F0D4EC10F031C000F004
:1009300032C001F033C002F034C003F0280EE76E7D
:10094000FD0EDBCFE9FFFE0EDBCFEAFFE750E92625
:10095000000EEA2231C0EEFF01C0EEFF02C0EEFF42
:1009600003C0EEFF300EE76EFD0EDBCFE9FFFE0E9B
:10097000DBCFEAFFE750E926000EEA22EE6AEE6AD4
:10098000200EEE6E410EEE6E2C0EE76EFD0EDBCFEE
:10099000E9FFFE0EDBCFEAFFE750E926000EEA2270
:1009A000EECF06F0EECF07F0EECF08F0EFCF09F074
:1009B000366A376A800E386E3F0E396E06C031F0E7
:1009C00007C032F008C033F009C034F0E8EC10F092
:1009D00064EC12F032C004F033C005F00A0E376E3A
:1009E000386A3EEC12F02EC004F02FC005F02EC085
:1009F00032F02FC033F0D4EC10F031C000F032C030
:100A000001F033C002F034C003F02C0EE76EFD0E8F
:100A1000DBCFE9FFFE0EDBCFEAFFE750E926000E51
:100A2000EA2231C0EEFF01C0EEFF02C0EEFF03C0BC
:100A3000EEFFE552E7CFD9FF1200D9CFE6FFE1CFB5
:100A4000D9FF280EE76EFD0EDBCFE9FFFE0EDBCFF0
:100A5000EAFFE750E926000EEA22EECF06F0EECFDD
:100A600007F0EECF08F0EFCF09F006C031F007C075
:100A700032F008C033F009C034F064EC12F032C038
:100A800004F033C005F0D89004360536D89004360B
:100A90000536FD0EDB500424E96EFE0EDB5005200A
:100AA000EA6EEECF00F0EECF01F0EECF02F0EFCF26
:100AB00003F000C030F001C031F002C032F003C0DA
:100AC00033F0E552E7CFD9FF1200D9CFE6FFE1CFEF
:100AD000D9FF2C0EE76EFD0EDBCFE9FFFE0EDBCF5C
:100AE000EAFFE750E926000EEA22EECF06F0EECF4D
:100AF00007F0EECF08F0EFCF09F006C031F007C0E5
:100B000032F008C033F009C034F064EC12F032C0A7
:100B100004F033C005F0D89004360536D89004367A
:100B20000536FD0EDB500424E96EFE0EDB50052079
:100B3000EA6EEECF00F0EECF01F0EECF02F0EFCF95
:100B400003F000C030F001C031F002C032F003C049
:100B500033F0E552E7CFD9FF1200D9CFE6FFE1CF5E
:100B6000D9FF300EE76EFD0EDBCFE9FFFE0EDBCFC7
:100B7000EAFFE750E926000EEA22EECF02F0EECFC0
:100B800003F0EECF04F0EFCF05F002C031F003C068
:100B900032F004C033F005C034F064EC12F032C01F
:100BA000F3FF33C0F4FFE552E7CFD9FF1200D9CFEE
:100BB000E6FFE1CFD9FFFD0EDBCFE6FFFE0EDBCF78
:100BC000E6FFCBDFE552E552F3CF0EFFF4CF0FFF88
:100BD0000F01F350F4100DE1006A016A026A036A22
:100BE00000C030F001C031F002C032F003C033F079
:100BF0008AD1280EE76EFD0EDBCFE9FFFE0EDBCFBC
:100C0000EAFFE750E926000EEA22EECF00F0EECF31
:100C100001F0EECF02F0EFCF03F000C031F001C0E1
:100C200032F002C033F003C034F064EC12F032C092
:100C300008FF33C009FF2C0EE76EFD0EDBCFE9FF86
:100C4000FE0EDBCFEAFFE750E926000EEA22EECFE8
:100C500000F0EECF01F0EECF02F0EFCF03F000C0D6
:100C600031F001C032F002C033F003C034F064EC64
:100C700012F032C00AFF33C00BFF0F01006B016B93
:100C8000026B036B0C6B0D6B280EE76EFD0EDBCF5A
:100C9000E9FFFE0EDBCFEAFFE750E926000EEA226D
:100CA000EECF00F0EECF01F0EECF02F0EFCF03F089
:100CB00000C031F001C032F002C033F003C034F0A4
:100CC00064EC12F032C008FF33C009FF0CCF32F0E1
:100CD0000DCF33F0D4EC10F031C000F032C001F091
:100CE00033C002F034C003F0300EE76EFD0EDBCFF0
:100CF000E9FFFE0EDBCFEAFFE750E926000EEA220D
:100D0000EECF04F0EECF05F0EECF06F0EFCF07F018
:100D100004C036F005C037F006C038F007C039F01F
:100D20009CEC12F0010A01E0E6D00CCF32F00DCFBE
:100D300033F0D4EC10F031C008F032C009F033C009
:100D40000AF034C00BF0010E0F01116A0C25106E71
:100D50000D51112210C032F011C033F0D4EC10F05C
:100D600031C00CF032C00DF033C00EF034C00FF0C3
:100D700031C036F032C037F033C038F034C039F00B
:100D800008C031F009C032F00AC033F00BC034F0B3
:100D90007EEC11F031C004F032C005F033C006F033
:100DA00034C007F000CF36F001CF37F002CF38F073
:100DB00003CF39F0D1EC11F031C000F032C001F0B6
:100DC00033C002F034C003F01A6A1B6A800E1C6E36
:100DD0003F0E1D6E010E0F01236A0C25226E0D5170
:100DE000232222C032F023C033F0D4EC10F031C003
:100DF0001EF032C01FF033C020F034C021F031C0EB
:100E000036F032C037F033C038F034C039F01AC091
:100E100031F01BC032F01CC033F01DC034F07EEC4A
:100E200011F031C016F032C017F033C018F034C0E2
:100E300019F008CF28F009CF29F00A0E376E386A6A
:100E400008CF32F009CF33F03EEC12F02EC028F07C
:100E50002FC029F0D89028362936D8902836293640
:100E6000FD0EDB502824E96EFE0EDB502920EA6ED1
:100E7000EECF24F0EECF25F0EECF26F0EFCF27F027
:100E800024C036F025C037F026C038F027C039F02E
:100E900016C031F017C032F018C033F019C034F06A
:100EA000D1EC11F031C012F032C013F033C014F0A5
:100EB00034C015F031C036F032C037F033C038F0EE
:100EC00034C039F000C031F001C032F002C033F05C
:100ED00003C034F0E8EC10F031C000FF32C001FF75
:100EE00033C002FF34C003FF0F01082B000E09239B
:100EF0000C2B0D23EBD600CF30F001CF31F002CF19
:100F000032F003CF33F0E552E7CFD9FF1200D9CF4B
:100F1000E6FFE1CFD9FFFD0EDBCFE6FFFE0EDBCF14
:100F2000E6FF1BDEE552E552050EF35C000EF458B9
:100F30000DE2006A016A026A036A00C030F001C073
:100F400031F002C032F003C033F0ACD1006A016A64
:100F5000800E026E3E0E036E0A0EE76EFB0EDBCFB6
:100F600008F0FC0EDBCF09F0E7500826000E09223E
:100F70000A0E376E386A08C032F009C033F03EEC12
:100F800012F02EC008F02FC009F0D89008360936AC
:100F9000D89008360936FD0EDB500824E96EFE0EA7
:100FA000DB500920EA6EEECF04F0EECF05F0EECF75
:100FB00006F0EFCF07F004C036F005C037F006C0EA
:100FC00038F007C039F000C031F001C032F002C083
:100FD00033F003C034F0D1EC11F031C004FF32C063
:100FE00005FF33C006FF34C007FF046A056A066ABE
:100FF0003E0E076E0A0EE76EFB0EDBCF0CF0FC0E0A
:10100000DBCF0DF0E7500C26000E0D220C060D5A1A
:101010000A0E376E386A0CC032F00DC033F03EEC69
:1010200012F02EC00CF02FC00DF0D8900C360D36FB
:10103000D8900C360D36FD0EDB500C24E96EFE0EFA
:10104000DB500D20EA6EEECF08F0EECF09F0EECFC8
:101050000AF0EFCF0BF008C036F009C037F00AC035
:1010600038F00BC039F004C031F005C032F006C0D2
:1010700033F007C034F0D1EC11F031C000F032C0D1
:1010800001F033C002F034C003F031C036F032C09A
:1010900037F033C038F034C039F004CF31F005CF29
:1010A00032F006CF33F007CF34F0E8EC10F031C067
:1010B00004FF32C005FF33C006FF34C007FF046AD7
:1010C000056A066A3E0E076E0A0EE76EFB0EDBCF60
:1010D0000CF0FC0EDBCF0DF0E7500C26000E0D22BD
:1010E000030E0C5E000E0D5A0A0E376E386A0CC0E5
:1010F00032F00DC033F03EEC12F02EC00CF02FC0D9
:101100000DF0D8900C360D36D8900C360D36FD0EFD
:10111000DB500C24E96EFE0EDB500D20EA6EEECFA4
:1011200008F0EECF09F0EECF0AF0EFCF0BF008C0D9
:1011300036F009C037F00AC038F00BC039F004C0EF
:1011400031F005C032F006C033F007C034F0D1EC06
:1011500011F031C000F032C001F033C002F034C0F1
:1011600003F031C036F032C037F033C038F034C04D
:1011700039F004CF31F005CF32F006CF33F007CF8E
:1011800034F0E7EC10F031C004FF32C005FF33C08B
:1011900006FF34C007FF046A056A800E066E3E0E25
:1011A000076E0A0EE76EFB0EDBCF0CF0FC0EDBCFFA
:1011B0000DF0E7500C26000E0D22040E0C5E000E02
:1011C0000D5A0A0E376E386A0CC032F00DC033F07B
:1011D0003EEC12F02EC00CF02FC00DF0D8900C3663
:1011E0000D36D8900C360D36FD0EDB500C24E96E12
:1011F000FE0EDB500D20EA6EEECF08F0EECF09F0C8
:10120000EECF0AF0EFCF0BF008C036F009C037F090
:101210000AC038F00BC039F004C031F005C032F01C
:1012200006C033F007C034F0D1EC11F031C000F04B
:1012300032C001F033C002F034C003F031C036F0E8
:1012400032C037F033C038F034C039F004CF31F059
:1012500005CF32F006CF33F007CF34F0E7EC10F0D3
:1012600031C004FF32C005FF33C006FF34C007FFA2
:1012700031C036F032C037F033C038F034C039F006
:10128000D1EC11F031C004FF32C005FF33C006FFBE
:1012900034C007FF31C030F032C031F033C032F01B
:1012A00034C033F0E552E7CFD9FF1200D9CFE6FFC3
:1012B000E1CFD9FFFD0EDBCFE6FFFE0EDBCFE6FF71
:1012C00018EC02F0E552E552010802E0000ECBD026
:1012D000280EE76EFD0EDBCFE9FFFE0EDBCFEAFF47
:1012E000E750E926000EEA22EECF00F0EECF01F043
:1012F000EECF02F0EFCF03F000C031F001C032F0CA
:1013000002C033F003C034F064EC12F032C00AFFC4
:1013100033C00BFF0F010C6B0D6B0CCF32F00DCFF8
:1013200033F0D4EC10F031C000F032C001F033C023
:1013300002F034C003F0300EE76EFD0EDBCFE9FFA4
:10134000FE0EDBCFEAFFE750E926000EEA22EECFE1
:1013500008F0EECF09F0EECF0AF0EFCF0BF0366ACF
:10136000376A800E386E400E396E08C031F009C001
:1013700032F00AC033F00BC034F0E7EC10F031C0AB
:1013800004F032C005F033C006F034C007F031C0BD
:1013900036F032C037F033C038F034C039F000C016
:1013A00031F001C032F002C033F003C034F09CECE5
:1013B00012F0010A57E10ACF04F00BCF05F0D890E4
:1013C00004360536D89004360536FD0EDB5004246D
:1013D000E96EFE0EDB500520EA6EEECF00F0EECF98
:1013E00001F0EECF02F0EFCF03F0F90EDBCF06F005
:1013F000FA0EDBCF07F0FB0EDBCF08F0FC0EDBCFE5
:1014000009F006C036F007C037F008C038F009C050
:1014100039F000C031F001C032F002C033F003C037
:1014200034F09CEC12F0010A02E0010E1CD00F0116
:10143000010E0A5F000E0B5B0A0E0A27000E0B233B
:101440000A0E376E386A0ACF32F00BCF33F03EEC1B
:1014500012F02EC00AFF2FC00BFF0F010C2B000E45
:101460000D235BD7000EE552E7CFD9FF1200D9CF8D
:10147000E6FF320EF36EF46AE552E7CFD9FF1200B1
:10148000D9CFE6FFE1CFD9FF0A0E0F01016A0A2585
:10149000006E0B5101220A0E376E386A00C032F01E
:1014A00001C033F03EEC12F02EC000F02FC001F06E
:1014B000D89000360136D89000360136FD0EDB504C
:1014C0000024E96EFE0EDB500120EA6EEECF04FF31
:1014D000EECF05FFEECF06FFEFCF07FF0A0E0F019D
:1014E000056A0A25046E0B5105220406000E055AF2
:1014F0000A0E376E386A04C032F005C033F03EEC95
:1015000012F02EC004F02FC005F0D8900436053636
:10151000D89004360536FD0EDB500424E96EFE0E2D
:10152000DB500520EA6EEECF00F0EECF01F0EECFFB
:1015300002F0EFCF03F000C036F001C037F002C078
:1015400038F003C039F004CF31F005CF32F006CFC8
:1015500033F007CF34F0E7EC10F031C004FF32C0B5
:1015600005FF33C006FF34C007FF31C030F032C082
:1015700031F033C032F034C033F0E552E7CFD9FF59
:02158000120057
:0E158200FDEC0FF0FB0EDBCFF3FFDB06F350AA
:1015900000090AE04BEC10F0FA0EB6EC10F0F3E1A3
:1015A000011CF1E1010E01D0000E2CEF10F0FDEC5A
:1015B0000FF03B0EE12402E3E168E652E16E010E1A
:1015C000DB6A020EDB6AF90EDBCFF6FFFA0EDBCF29
:1015D000F7FFFB0EDBCFF8FF0800F550DF6EDF50A2
:1015E00002E150EF0FF0250EDF5C02E043EF0FF059
:1015F000030EDB6A040EDB6A050EDB6A060EDB6A8D
:10160000070EDB6A65EC0FF02D0EDF5C0CE02B0E95
:10161000DF5C09E0200EDF5C06E0230EDF5C03E008
:10162000300EDF5C1AE1DF50300A14E0130A0FE0DD
:10163000030A0AE00B0A05E0060AE4E1030EDB8078
:10164000E1D7030EDB82DED7030EDB84DBD7030E8C
:10165000DB86D8D7030EDB88D5D72A0EDF5C1BE1EB
:1016600061EC0FF0AFEC0FF010E0030EDB8032689E
:101670003368130EDBCF37F0140EDBCF38F080EC7D
:1016800013F0040E30C0DBFF03D0130E98EC0FF004
:1016900065EC0FF00BD0090EDB6A06EC10F003E0EE
:1016A0007AEC10F0FAD7090E98EC0FF0030EDBB0CD
:1016B000DB982E0EDF5C1BE165EC0FF02A0EDF5C81
:1016C0000BE161EC0FF0AFEC0FF003E1130EEAEC6D
:1016D0000FF065EC0FF00BD0090EDB6A06EC10F092
:1016E00003E07AEC10F0FAD7090EEAEC0FF0680E7E
:1016F000DF5C07E165EC0FF0680EDF5C1DE1030EB7
:1017000018D0740EDF5C17E07A0EDF5C14E0480E30
:10171000DF5C06E0540EDF5C03E05A0EDF5C02E1A2
:10172000020E07D06C0EDF5C03E06A0EDF5C04E1A2
:10173000010E3DEC10F0C9DBDF506E0A01E17FD3F2
:101740001E0A01E192D1200A01E18FD13F0A01E195
:1017500049D11A0A01E146D10D0A01E143D1200A1B
:1017600001E140D13A0A01E13DD1200A01E13AD13B
:10177000260A01E135D10D0A01E132D11A0A01E14F
:10178000D9D0200A4AE0300A1FE0460A0EE0250AB6
:1017900001E083D3D950F90FE96EFF0EDA20EA6E2B
:1017A000010EEE5E000EEE5AEE5A4BEC10F0250ED6
:1017B000E66E95DB03E1011C01E169D347EC10F013
:1017C00001E26BD3DB2A69D3080EDB6A040EDB501F
:1017D000010806E2040EDB040FEC10F0DB508BDB9B
:1017E000080EDB5009E0030EDB50010B05E172DB54
:1017F00001E04DD3080EDB6A64DBEFCFDFFFBFEC07
:1018000010F003E1011C01E142D347EC10F001E3C9
:10181000DB2A60DB01E141D33AD3070EDB5002083B
:101820000FE18BEC10F0030E52EC10F00E0EEECF29
:10183000DBFF0F0EEECFDBFF100EEECFDBFF20D075
:10184000F70EDBCF03F0F80EDBCF04F0020E035EE1
:10185000000E045AF70E03C0DBFFF80E04C0DBFFD6
:1018600003C0E9FF04C0EAFF42EC10F0026A0E0E6A
:1018700000C0DBFF0F0E01C0DBFF100E02C0DBFF5C
:101880000E0EDBCFE6FF0F0EDBCFE6FF100EDBCF39
:10189000E6FF11EC19F0E552E552E552130E31C0A6
:1018A000DBFF140E32C0DBFF060EDB5005E0130E2B
:1018B00086EC10F001E26ADBAAEC10F002E2130EF3
:1018C00037DB6DEC10F006E0040E86EC10F002E25F
:1018D000050E2EDB030EDBB005D0FCDA01E0D7D21B
:1018E000080EDB6A090EDB6A0E0EDBCFF6FF0F0E69
:1018F000DBCFF7FF100EDBCFF8FF0800F550DF6EEF
:10190000DF5014E0B0EC10F011E2BFEC10F003E196
:10191000011C01E1BCD2BBDB01E3DB2A090EDB2A9F
:10192000D9500E0FE96E000ECBDBE7D7D3DA01E119
:10193000B4D2ADD2C6DA110EEECFDBFF120EEDCF70
:10194000DBFF110EDBCFE6FF120EDBCFE6FF03EC71
:1019500019F0E552E552130EF3CFDBFF140EF4CF6E
:10196000DBFF060EDB5004E0130ED0DB01E20EDBE2
:10197000AAEC10F002E2130EDBDAAFDB05E0040E96
:10198000C5DB02E2050ED4DA030EDBB005D0A2DA25
:1019900001E07DD2080EDB6A090EDB6A110EDBCF97
:1019A000E9FF120EDBCFEAFFEFCFDFFFDF5014E0DD
:1019B000D7DB12E2E4DB03E1011C01E168D267DB63
:1019C00001E3DB2A090EDB2A110EDB2ADBCFE9FF5C
:1019D000120EE8E3DB2AE6D77DDA01E15ED257D2C8
:1019E000030EDB8E070EDB0410E195DB040E5ADBE1
:1019F0000A0EEECFDBFF0B0EEECFDBFF0C0EEECFB1
:101A0000DBFF0D0EEECFDBFF6CD0070EDB500308C3
:101A10002CE1030EDBAE0DD0B2DA020E76DAEFCF98
:101A200000F0016A026A036A00AE39D001680268F8
:101A300035D0F70EDBCF01F0F80EDBCF02F0020E4F
:101A4000015E000E025AF70E01C0DBFFF80E02C065
:101A5000DBFF01C0E9FF02C0EAFFEFCF00F00A0E92
:101A600000C0DBFF0B0EDB6A38D0070EDB5002082C
:101A700009E1030EDBAE04D059DB02AE10D00ED06C
:101A800055DB0DD0030EDBAE12D079DA020E3DDA53
:101A9000F9DA026A036A01AE02D002680368E2DA88
:101AA0000C0E02C0DBFF0D0E03C0DBFF1AD0F70ED9
:101AB000DBCF02F0F80EDBCF03F0020E025E000E69
:101AC000035AF70E02C0DBFFF80E03C0DBFF02C0B3
:101AD000E9FF03C0EAFFD6DAC5DA0C0EDB6A0D0EA9
:101AE000DB6A060EDB5005E1010EF36E050EF3CF47
:101AF000DBFF150EDB6A160EDB6AD950370F006E5E
:101B0000000EDA20016E390E00C0DBFF3A0E01C074
:101B1000DBFF380EDB6A080EDB6A0A0EAEDADF5036
:101B2000780A12E0200A10E0280A0CE0200A0AE0F5
:101B30003F0A06E00D0A02E0200A08E1020E05D085
:101B4000080E03D0080EDF26100E97DA030EDBBE58
:101B500002D0DB92DB94DB50800B24E08ADAD89051
:101B6000030EEB50000A08E6000EEE5C000EEE5885
:101B7000000EEE58000EEE5815E213DA356836689E
:101B800037683868CBEC18F00A0E2CC0DBFF0B0E60
:101B90002DC0DBFF0C0E2EC0DBFF0D0E2FC0DBFFB8
:101BA0002D0E08D0030EDBA202D02B0E03D0DBA437
:101BB00008D0200EF36E170EF3CFDBFF150EDB2AD5
:101BC00002D0170EDB6A050EDB5003E1B7D901E145
:101BD00089D0B90E006E330E016E000E026E070E34
:101BE000DBCF03F0046A056A066A03C035F004C05F
:101BF00036F005C037F006C038F0D3D936EC19F00E
:101C000000502C24F36E01502D20F46E02502E2033
:101C1000F86EF4CFF7FFF3CFF6FF0800090EF5CF0B
:101C2000DBFF580EDF5C0FE1610EF36E090E7BD90E
:101C30000AE3200E006E090EDBCFE7FF0050E75EDF
:101C4000090EE7CFDBFF070EDBCF00F0016A026A67
:101C5000036A0FDA00C035F001C036F002C037F079
:101C600003C038F0EECF30F0EECF31F0EECF32F0EF
:101C7000EFCF33F036EC19F033C0EDFF32C0EDFF9B
:101C800031C0EDFF30C0EFFF390EDBCFE9FFDB06DF
:101C90003A0EDBCFEAFF01E2DB06090EDBCFEFFFF6
:101CA000150EDB2A4BD995E1030EDBA61DD06F0E76
:101CB000DF5C06E1C1D918E3150EDB285BDA14D02E
:101CC000780EDF5C09E0580EDF5C06E0620EDF5C38
:101CD00003E0420EDF5C08E1020EF36E160EF3CF56
:101CE000DBFF02D0150EDB6A030EDB50100B0EE09B
:101CF000040EDBCF00F0050EDB50D880005406E266
:101D0000060EDB5003E1040EDB5034DA95D90AE20B
:101D1000050EDBCFE7FF150EDB50E75E050EE7CFC4
:101D2000DBFF02D0050EDB6A040EDBCF00F0160EDF
:101D300045D9D880005414E2160EDBCFE6FF150E0D
:101D4000DBCFE6FF040EDBCFE6FF050EDB50E552EE
:101D5000E75CE552D880E754E552D880E7545FD974
:101D6000030EDB50010B0BE1080EDB5008E0B2D88C
:101D700001E08DD0080EDB50BED8080EDB6A170ECE
:101D8000DB5007E088D9170EF1D903E1011C01E10E
:101D90007ED0160EDB5016E07ED9300EE66E9FD850
:101DA00002E1011C74E077D9DFCFE6FF89EC18F07F
:101DB000E552E552E552F4CF01F00001F31C02E1D7
:101DC000011C65E0050EDBCF00F0160EDB50D8805D
:101DD000005409E2050EDBCFE7FF160EDB50E75E8D
:101DE000050EE7CFDBFF300EE66E050ECBD94FE1D7
:101DF000390EDB2ADBCFE9FF3A0E01E3DB2ADBCF2A
:101E0000EAFF090EEFCFDBFFDB500EE044D9090EED
:101E1000ADD902E1011C3BE0390EDB2ADBCFE9FF43
:101E20003A0EEDE3DB2AEBD755D831E1160EDBCFC6
:101E3000E6FF080EC3D8E552E7245DD82ED0070E82
:101E4000DB50030A1CE0010A14E0030A07E07BD917
:101E5000DBCFEEFF020EDBCFEDFF1FD0F5D8056A1A
:101E600003AE02D0046805682CD8BCD805C0EEFFCC
:101E700014D0EAD803BE046824D8B4D80ED063D9ED
:101E8000DBCFEFFF0AD07BD905E1011C03E1F3684A
:101E9000F46810D0FCD801E3DB2A79D9ECEF0AF022
:101EA000010EDBCF00F0020EDBCF01F000C0F3FF2C
:101EB00001C0F4FF3B0EE15C02E2E16AE552E16E33
:101EC000CBD029D9020E52EF10F061D90800F5509D
:101ED000DF6E1200200EE66E080EC2EF10F089ECE5
:101EE00018F0E552E552E552F3CF00F0F4CF01F0DF
:101EF0000001F31C1200006E016AD950010F4DD988
:101F00000050EE260150ED221200045E000E055A2C
:101F1000F70E04C0DBFFF80E05C0DBFF04C0E9FFCD
:101F200005C0EAFF1200DBCFF4FFF350F45C1200AF
:101F3000DB50E76E040EE7CFDBFF12000A0EDBCFAB
:101F400000F00B0EDBCF01F00C0EDBCF02F00D0E1C
:101F5000DBCF03F000500110021003101200130E2B
:101F6000EECFDBFF140EEDCFDBFF130EDBCF00F067
:101F7000140EDBCF01F00001800E01141200F70EE9
:101F8000DBCF04F0F80EDBCF05F01200050EDB50BE
:101F9000E66ED950130F01D9E552E750EE6EED6AA7
:101FA00012000A0EDBCF30F00B0EDBCF31F00C0E3F
:101FB000DBCF32F00D0EDBCF33F01200DBCFE6FFCC
:101FC000150EDBCFE6FF050EDB50E552E724E552A8
:101FD000E7241200DB50CED8010EF36E060EF3CFCD
:101FE000DBFF1200EE50EFCFEAFFE96E02C0EEFF1A
:101FF00003C0EEFF04C0EEFF1200D9CFE6FFDACF38
:10200000E6FFE1CFD9FFE2CFDAFF1200DFCFE6FF34
:10201000E66A87EC19F0E552E552F3501200E76EDC
:10202000080EE7CFDBFF1200EECF00F0EECF01F09D
:10203000EFCF02F0036A1200050EDBCF00F0150EA1
:10204000DB50D88000541200010EDBCF02F0020EEC
:10205000DBCF03F0046A1200E552E5CFDAFFE7CFE9
:10206000D9FF12000A0E00C0DBFF0B0E01C0DBFF20
:102070001200D9500A0FCDEF10F0F36E070EF3CF18
:10208000DBFF1200EECF00F0EFCF01F01200010EE7
:10209000DB2A020E1200FC0EDBCFE6FFFD0EDBCFCB
:1020A000E6FF1200005E000E015AF70E00C0DBFFD3
:1020B000F80E01C0DBFF00C0E9FF01C0EAFF12001B
:1020C000DA20EA6EEF2AEECFF6FF000EEF22EECF17
:1020D000F7FFEF22EECFF8FF1200040EDBCFE6FF92
:1020E000130EDB50E552E75C9ADFDB5004DF060E8F
:1020F000DB501200090EDB500A0DF350DF24D00F25
:10210000E76E090EE7CFDBFF65EF0FF0DB50F36EF4
:10211000050E93EF0FF0F70EDBCF00F0F80EDBCFDC
:1021200001F01200DFCFE6FF6FEF0FF028DF030EA4
:10213000ECDE14EF10F0C1EC0AF0E552E552E55286
:10214000E55200091200BDDEEE50EFCFEAFFE96E66
:10215000010E1200130EDB50F36E040E93EF0FF01E
:10216000040EDB50F36E090E93EF0FF0DBCFE6FFAA
:102170006FEF0FF0E76E050EE7CFDBFF12008BDF8E
:1021800092EF10F0DBCFE6FF86DF9BEF10F0D95027
:10219000F90FE96EFF0E60EF10F0E96E000EDA2025
:0421A000EA6E1200D1
:0C21A4002B9E08D02B9E33AE05D0326C71
:1021B000331EE86A33222B8E33C02DF032C02CF050
:1021C0003D6A3C6A8E0E2E6E2F6A16EF13F0397E32
:1021D0002B6A52EC13F06AEC13F02BB6FAEF12F004
:1021E0002BA20AD02BAA03D02BBEFAEF12F02BA4FD
:1021F00006EF13F003EF13F02BAA05D02BAC06EF7C
:1022000013F003EF13F02BA00AD02BA808D02BBE9D
:1022100004D02BA402D00FEF13F013EF13F03C6A9D
:102220002F6A3950345C3B6E10E331C03DF032C050
:102230002CF033C02DF034C03AF036C031F037C046
:1022400032F038C033F02B3A09D036C03DF037C0F9
:102250002CF038C02DF039C03AF03B6C2B9E2BBCD3
:102260002B8E3AC02EF02BB042EF13F01A0E3B60CB
:1022700042EF13F02E6A346A2BA408D0316C321E60
:10228000331E341EE86A3222332234222BAC08D0AB
:102290003D6C2C1E2D1E2E1EE86A2C222D222E2275
:1022A000306A3B5207E0343433323232313230322A
:1022B0003B2EF9D731503D2632502C2233502D225F
:1022C00034502E2230C03CF02B9E2EAE0BD03C6CF6
:1022D0003D1E2C1E2D1E2E1EE86A3D222C222D2274
:1022E0002E222B8E2EA006D0D8802D322C323D32BD
:1022F0003C323A2A3AC02EF016EF13F02B6A52EC19
:1023000013F06AEC13F02BB6FAEF12F02BA205D003
:102310002BBAFAEF12F001EF13F02BBA0DEF13F016
:102320002BA005D02BB8FAEF12F00DEF13F02BB85D
:1023300001EF13F02F6A7F0E34242E6EE86A2F22ED
:1023400039502E5EE86A2F5A1A0E3A6E346A3C6A89
:102350003D6A2C6A2D6A3650315E3750325A3850F9
:10236000335A000E345A09E736503126375032229C
:1023700038503322000E342201D03C8AD8903136B6
:10238000323633363436D8903C363D362C362D3600
:102390003A2EE1D7335032103110D8A43C8A16EFD0
:1023A00013F02B6A52EC13F06AEC13F02BB6FAEF31
:1023B00012F02BA205D02BB8FAEF12F001EF13F0B8
:1023C0002BAA05D02BB0FAEF12F001EF13F02BB0CF
:1023D00002D02BA802D00DEF13F02F6A395034240D
:1023E0002E6EE86A2F227E0E2E5EE86A2F5A3C6A15
:1023F0003D6A2C6A2D6A38503302F4CF2DF0F3CFAA
:102400002CF037503302F3503D26F4502C22000EAE
:102410002D2238503202F3503D26F4502C22000E6B
:102420002D2236503302F3503C26F4503D22000E4C
:102430002C222D2237503202F3503C26F4503D22FC
:10244000000E2C222D2238503102F3503C26F4503D
:102450003D22000E2C222D2236503202F4503C2612
:10246000000E3D222C222D2237503102F4503C2602
:10247000000E3D222C222D2216EF13F02A6A38AED0
:1024800047EF12F0376C381EE86A38222A1E33AE46
:102490004FEF12F0326C331EE86A33222A1E71ECC1
:1024A00019F033BE5FEF12F02AAE000C326C331E0F
:1024B000E86A33222E6C2F1EE86A2F22000C2ABEF7
:1024C00056EF12F02B88FF0C2B6A52EC13F02BB650
:1024D0006EEF12F02BA20ED02BB405D07F0E336E10
:1024E000FF0E326E1FD0800E336E326A1BD0336AFD
:1024F000326A18D02BB0FBD78F0E3460EDD77E0E2A
:102500003464F5D78E0E345C05E0D8903332323225
:10251000342AF8D72BA406D0326C331EE86A332253
:1025200033AEE5D71200A5EC12F02BB6000C2BB0A1
:10253000000C2BB4000C010CA5EC12F02BB6000C17
:102540002BB0000C2BA4000C010C2B6A52EC13F0E6
:102550006AEC13F02BB612002BAE08D02BA004D0DF
:102560002BA802D02B8012002B9012003950345C23
:102570000BE13850335C08E13750325C05E13650EE
:10258000315C02E12B801200D8A002D02B8E10D03B
:10259000345039C034F0396E335038C033F0386EAF
:1025A000325037C032F0376E315036C031F0366EAF
:1025B0003950345C10E0FF0F09E02B902BB403D0AE
:1025C0002BAE2B8412002BAE2B941200392AD890FC
:1025D0003832373236323650315E3750325A385010
:1025E000335A33BEEAD7D890313632363336342EAA
:1025F000F8D7C8D77F0E346EFF0E336E326E316E51
:1026000012007F0E2BBEFF0E346E02D07F0E346E92
:10261000800E336E326A316AF3D72BAE04D0800E4F
:10262000346E336AF7D7346A336AF4D72D502C10DE
:102630003D103C10F8E02FBEF0D72DBE0CD02E5030
:102640002F10EBE0D8903C363D362C362D362E063A
:10265000D8A02F06F2D72F50D4E12E28D2E03CAEDE
:1026600011D07F0E3C1402E13DA00CD03D2AE86A57
:102670002C222D2207E3D8802D322C323D322E2AF7
:102680002E28BFE02E50C9E03DC031F02CC032F002
:102690002D34336E2E30346E3332349E2BBE348E56
:1026A00000EF13F03336343602E32B842B7E06E141
:1026B0002B80346A336A326A316A1200342803E0AC
:1026C000D88033321200D890333202E12B821200CC
:1026D0002B8612003836393602E32B8C2B7E06E12E
:1026E0002B88396A386A376A366A1200392803E05B
:1026F000D88038321200D8903832EAE12B8A1200A2
:1027000033C03DF032C03CF032503702F4CF31F0EC
:10271000F3CF30F033503802F4CF33F0F3CF32F050
:102720003702F3503126F4503222E86A33223C500B
:102730003802F3503126F4503222E86A332238AEA0
:10274000A6EF13F03C50325E3D50335A3DAE000CC4
:0A2750003750325E3850335A000C47
:06275A00D9CFE6FFE1CF3C
:10276000D9FFFD0EDBCFE6FFE66A07EC17F0E55276
:10277000E552D950FB0FE96EFF0EDA20EA6E010E2A
:10278000EE1806E1ED5004E1B70E006E330E03D0F3
:10279000B50E006E330E016E026A00C0E6FFE66EF3
:1027A00002C0E6FF5AEC17F0E552E552E552D95067
:1027B000F90FE96EFF0EDA20EA6E010EEE1806E15F
:1027C000ED5004E1B70E006E330E03D0B50E006E6F
:1027D000330E016E026A00C0E6FFE66E02C0E6FF3D
:1027E0005AEC17F0E552E552E552D950F70FE96E71
:1027F000FF0EDA20EA6E010EEE1806E1ED5004E15C
:10280000B70E006E330E03D0B50E006E330E016EA0
:10281000026A00C0E6FFE66E02C0E6FF5AEC17F05F
:10282000E552E552E552E552E7CFD9FF1200D9CF84
:10283000E6FFE1CFD9FFFD0EDBCFE6FFE66A07EC4E
:1028400017F0E552E552FB0EDBCF00F0FC0EDBCFBC
:1028500001F0310E0102F3CF01F00002F3CF00F0DE
:10286000F45001260A0E376E386AF3CF32F001C0F9
:1028700033F071EC19F032C000F033C001F032C017
:10288000E6FF33C0E6FFB00E026E330E036E046A3D
:1028900002C0E6FFE66E04C0E6FF100EE66E0F0E05
:1028A000E66E9DEC17F0056E070EE15E055010CF49
:1028B000E6FF28EC17F0E5522E0EE66E28EC17F036
:1028C000E55211CFE6FF28EC17F0E55212CFE6FFF4
:1028D00028EC17F0E55213CFE6FF28EC17F0E5528D
:1028E000560EE66E28EC17F0E552E552E7CFD9FF19
:1028F0001200D9CFE6FFE1CFD9FFFD0EDBCFE6FF17
:10290000E66A07EC17F0E552E552FB0EDBCFE6FF77
:10291000FC0EDBCFE6FFAB0E006E330E016E026ADB
:1029200000C0E6FFE66E02C0E6FF100EE66E0F0E78
:10293000E66E9DEC17F0036E070EE15E035010CFBC
:10294000E6FF28EC17F0E55211CFE6FF28EC17F070
:10295000E55212CFE6FF28EC17F0E55213CFE6FF61
:1029600028EC17F0E55214CFE6FF28EC17F0E552FB
:1029700015CFE6FF28EC17F0E552E552E7CFD9FF77
:102980001200D9CFE6FFE1CFD9FFFD0EDBCF00F07B
:10299000FE0EDBCF01F0050ED89001320032E804C4
:1029A000FBE100500F011F0BF36EE00E4015F3101A
:1029B000406FE552E7CFD9FF1200D9CFE6FFE1CF54
:1029C000D9FFFD0EDBCFE6FFE66A07EC17F0E55214
:1029D000E552FB0EDBCFE6FFFC0EDBCFE6FFAB0ED6
:1029E000006E330E016E026A00C0E6FFE66E02C0A2
:1029F000E6FF100EE66E0F0EE66E9DEC17F0036E0E
:102A0000070EE15E035010CFE6FF28EC17F0E55209
:102A100011CFE6FF28EC17F0E55212CFE6FF28ECC5
:102A200017F0E55213CFE6FF28EC17F0E55214CF6C
:102A3000E6FF28EC17F0E55215CFE6FF28EC17F07B
:102A4000E552E552E7CFD9FF1200D9CFE6FFE1CF3B
:102A5000D9FFFD0EDBCFE6FFE66A07EC17F0E55283
:102A6000E552D950F90FE96EFF0EDA20EA6EEECF8B
:102A7000E6FFEECFE6FFEECFE6FFEFCFE6FFA60ED6
:102A8000006E330E016E026A00C0E6FFE66E02C001
:102A9000E6FF100EE66E0F0EE66E9DEC17F0036E6D
:102AA000090EE15E035010CFE6FF28EC17F0E55267
:102AB00011CFE6FF28EC17F0E55212CFE6FF28EC25
:102AC00017F0E55213CFE6FF28EC17F0E55214CFCC
:102AD000E6FF28EC17F0E55215CFE6FF28EC17F0DB
:102AE000E55216CFE6FF28EC17F0E55217CFE6FFC8
:102AF00028EC17F0E552E552E7CFD9FF1200D9CF05
:102B0000E6FFE1CFD9FFFD0EDBCFE6FFE66A07EC7B
:102B100017F0E552E55281A804D0B70E006E330ECF
:102B200003D0B50E006E330E016E026A00C0E6FFE0
:102B3000E66E02C0E6FF5AEC17F0E552E552E552A8
:102B400081AA04D0B70E006E330E03D0B50E006E0E
:102B5000330E016E026A00C0E6FFE66E02C0E6FFB9
:102B60005AEC17F0E552E552E55281AC04D0B70EAD
:102B7000006E330E03D0B50E006E330E016E026A86
:102B800000C0E6FFE66E02C0E6FF5AEC17F0E55221
:102B9000E552E55281AE04D0B70E006E330E03D07D
:102BA000B50E006E330E016E026A00C0E6FFE66EDF
:102BB00002C0E6FF5AEC17F0E552E552E552E55245
:062BC000E7CFD9FF12006F
:0A2BC600D9CFE6FFE1CFD9FF020EE0
:102BD000E12695809582958495868C8C0000000076
:102BE0008350DF6E8C9CDF50100D010EF3CFDBFFA6
:102BF0008C8C000000008350DF6E8C9C000EDB98F4
:102C0000DB9ADB9CDB9E010EDBCFE7FFDF50E71298
:102C1000010EE7CFDBFF9590959295949596010E66
:102C2000DB5000D0006E020EE15C02E2E16AE55288
:102C3000E16E0050E552E7CFD9FF1200D9CFE6FF91
:102C4000E1CFD9FF030EE126010EDB6A020EDB6A3B
:102C50008C988C8AB8DFDF6ED950010FE96EDACF1D
:102C6000EAFFE80EEE1802E1030EED1804E18A8295
:102C70008A848A86FCD7010EDB2A020E01E3DB2A56
:102C8000DFBEE8D78C9A0400010EDB6A020EDB6A15
:102C9000030EE15C02E2E16AE552E16EE552E7CF44
:102CA000D9FF1200D9CFE6FFE1CFD9FFE652FE0EE1
:102CB000DB5002E08C9801D08C888C9A8C8C8C969E
:102CC0008C948C928C90000000008C50DF6E000E73
:102CD000DB90DB92DB94DB96FD0EDB500F0BDF10FD
:102CE0008C6E000000008C9CE552E552E7CFD9FFC6
:102CF0001200D9CFE6FFE1CFD9FFFD0EDB380F0B75
:102D0000E66EFE0EDBCFE6FFCDDFE552E552FD0EAF
:102D1000DBCFE6FFFE0EDBCFE6FFC4DFE552E55278
:102D2000E552E7CFD9FF1200959E959C959A959C08
:102D300095909592959495968C9E8C8E8C988C9A65
:102D40008C9C8C8C7BDF020EE66E010EE66EAADF99
:102D5000E552E55273DF020EE66E010EE66EA2DF6B
:102D6000E552E5526BDF080EE66E010EE66E9ADF65
:102D7000E552E55263DFE66A010EE66E93DFE55247
:102D8000E5525CDF0C0EE66E010EE66E8BDFE5525F
:102D9000E55254DFE66A010EE66E84DFE552E55245
:102DA0004DDF010EE66EE66E7DDFE552E55246DF51
:102DB000E66A010EE66E76DFE552E5523FDF020E6F
:102DC000E66E010EE66E6EDFE552E55237DF040E69
:102DD000E66E010EE66E66DFE552E5522FDF0E0E5F
:102DE000E66E010EE66E5EDFE552E55227DF07D89C
:102DF000E66AE66A0CD8E552E5528C8E1200010EA6
:102E0000E66EE66E76DFE552E5521EEF16F0D9CF9C
:102E1000E6FFE1CFD9FFFD0EDB50010815E3FE0E02
:102E2000DB500F0811E3FD0EDB0404E1FE0EDB5066
:102E3000C00903D0FE0EDB508009E66E010EE66E7F
:102E400058DFE552E552FADEE552E7CFD9FF12002E
:102E5000D9CFE6FFE1CFD9FFFE0EDBCFE6FFE66A72
:102E600048DFE552E552EADEE552E7CFD9FF12002E
:102E7000D9CFE6FFE1CFD9FF0A0E006E386EFE0E05
:102E8000DBCF33F0C5EC19F03350300FE66EE0DFE6
:102E9000E5520A0E006E386EFE0EDBCF33F0C5EC45
:102EA00019F02F50300FE66ED3DFE552E552E7CF31
:102EB000D9FF1200D9CFE6FFE1CFD9FFE652DF6A92
:102EC000DFCF00F0016A026AD950FC0FE96EFF0EF5
:102ED000DA20EA6EEE500024F36EEE500120F46E1C
:102EE000EE500220F86EF4CFF7FFF3CFF6FF0800A4
:102EF000F5501EE0DF50DF2A006E016A026AD950E9
:102F0000FC0FE96EFF0EDA20EA6EEE500024F36E3D
:102F1000EE500120F46EEE500220F86EF4CFF7FF71
:102F2000F3CFF6FF0800F550E66E92DFE552C8D702
:0A2F3000E552E552E7CFD9FF120089
:062F3A00D9CFE6FFDACF5B
:102F4000E6FFE1CFD9FFE2CFDAFFE652E652E652E2
:102F5000E652D950F90F006EFF0EDA20016E020E14
:102F600000C0DBFF030E01C0DBFF020EDBCFE6FF7C
:102F7000030EDBCFE6FFF90EDBCFE6FFFA0EDBCF69
:102F8000E6FFFB0EDBCFE6FFD950FC0FE66EFF0E2F
:102F9000DA20E66ED7EC0AF0006E070EE15C02E282
:102FA000E16AE552E16E0050F3CFDEFFF4CFDDFFC2
:102FB000FC0EDBCFE9FFFD0EDBCFEAFFEF6ADECFD1
:102FC00000F0DDCF01F000C0F3FF01C0F4FF040EFC
:102FD000E15C02E2E16AE552E16EE552E5CFDAFF3B
:062FE000E7CFD9FF12004B
:0A2FE600CA0EF66E030EF76E000E21
:102FF000F86E0F010900F550336F0900F550346F7A
:1030000003E1336701D03DD00900F5502E6F090070
:10301000F5502F6F0900F550306F09000900F55089
:10302000E96E0900F550EA6E090009000900F55043
:10303000316F0900F550326F09000900F6CF35FFF6
:10304000F7CF36FFF8CF37FF2ECFF6FF2FCFF7FFA2
:1030500030CFF8FF0F01315302E1325307E009008E
:10306000F550EE6E3107F8E23207F9D735CFF6FFAB
:1030700036CFF7FF37CFF8FF0F013307000E345B71
:04308000BFD71200A4
:0C308400D9CFE6FFE1CFD9FF020EE12614
:10309000DE6ADD6AC282C2B2FED7C450DE6EDD6A6D
:1030A000DECF02F0DDCF03F002C003F0026AC350AE
:1030B0000210DE6E03C0DDFFD9CFE9FFDACFEAFFF1
:1030C000FF0EEE1807E1030EED1804E1FE0EDE6EB2
:1030D000030EDD6EDECF00F0DDCF01F000C0F3FFA8
:1030E00001C0F4FF020EE15C02E2E16AE552E16E2A
:1030F000E552E7CFD9FF1200808AC950016AF36E0A
:1031000001C0F4FF1200D9CFE6FFE552E7CFD9FFA7
:023110001200AB
:0E311200D9CFE6FFDACFE6FFE1CFD9FFE2CF5B
:10312000DAFFFB0EDBCF00F0FC0EDBCF01F000017D
:10313000800E01141AE1FB0EDBCFE9FFFC0EDBCFA2
:10314000EAFFEECFF3FFEDCFF4FFEE2A000EEF2201
:10315000F3CFE9FFF4CFEAFFFD0EDBCFEFFFEF5037
:10316000016AF36E01C0F4FF10D0FB0EDB50FE08C5
:1031700006E1FD0EDBCFE6FFB7EC19F005D0FD0E42
:10318000DBCFE6FF03EC00F0E552E552E5CFDAFFD6
:06319000E7CFD9FF120099
:0A31960030503502F3CF2CF0F4CFD7
:1031A0002DF03602F3502D26000EF4202E6E3050F6
:1031B0003702F3502E26000EF4202F6E30503802C6
:1031C000F3502F2631503502F3502D26F4502E2285
:1031D000000E2F2231503602F3502E26F4502F22AB
:1031E00031503702F3502F2632503502F3502E263D
:1031F000F4502F2232503602F3502F26335035022E
:06320000F3502F2612001E
:0A320600FE0EE3CFE9FFFF0EE3CF59
:10321000EAFFF36AF46AEE5203E0F34AF42AFBD7BA
:103220001200FF0EE3CFF8FFE552FF0EE3CFF7FFEA
:10323000E552FF0EE3CFF6FFE552E66AE66AE66A7C
:103240000900F55209E0FD0EE32A05E1FE0EE32A2E
:1032500002E1FF0EE32AF4D7FD0EE3CF31F0FE0EBC
:0C326000E3CF32F0FF0EE3CF33F012009A
:04326C002F6A2E6A2D
:103270002D6A2C6A200EE76ED89030363136323601
:1032800033362C362D362E362F3635502C5C3650B4
:103290002D5837502E5838502F5809E335502C5E92
:1032A00036502D5A37502E5A38502F5A302AE72E82
:0432B000E4D712004D
:0C32B400FF0EE3503F6EEF0E01D0F30E52
:1032C000E76EE72E61EF19F00C0E3E6EE76AE72E0F
:1032D00067EF19F03E2E66EF19F03F2E5FEF19F001
:0232E0001200DA
:0E32E2002F6A2E6A100EE76ED8903236333601
:1032F0002E362F3637502E5C38502F5805E3375076
:0E3300002E5E38502F5A322AE72EF0D71200D8
:02330E00F36A60
:10331000F46AFF0EE124E96EFF0EE220EA6EED662C
:1033200007D02F0EEF6404D03A0EEF6001D0F32ADD
:02333000120089
:0E333200380EF36E00EE00F00F0E01D8120000
:10334000EA6002D0EE6AFCD7F350E9601200EE6A40
:02335000FCD7A8
:0E3352001EEE00F02EEE00F0F86A2B9CF3EC5D
:0E33600017F0E5EC19F051EC00F0FBD712006D
:02336E00FF0E50
:10337000E350ACBA04D0AF6AAB8EAC8A949CACA2DA
:0A338000FED7AD6EF36EF46A120082
:06338A002F6A080EE76E39
:10339000D89033362F3638502F5C02E32F6E332A05
:0633A000E72EF7D7120032
:0A33A600253038640025303664003D
:0933B000253034640030003100C6
:0733B90030313233343536A8
:0A33C0003738396162636465660006
:0233CA001200EF
:0433CC0000000000FD
:0B33D0000000000000280005000000C5
:020000040030CA
:0100010039C5
:010003003CC0
:010006008574
:00000001FF
